{"abi":[{"type":"constructor","inputs":[{"name":"_beaconDeposit","type":"address","internalType":"address"}],"stateMutability":"nonpayable"},{"type":"function","name":"UPGRADE_INTERFACE_VERSION","inputs":[],"outputs":[{"name":"","type":"string","internalType":"string"}],"stateMutability":"view"},{"type":"function","name":"beaconDeposit","inputs":[],"outputs":[{"name":"","type":"address","internalType":"contract IDepositContract"}],"stateMutability":"view"},{"type":"function","name":"deployNewRewardReceiver","inputs":[{"name":"client","type":"address","internalType":"address"},{"name":"provider","type":"address","internalType":"address"},{"name":"comission","type":"uint96","internalType":"uint96"}],"outputs":[],"stateMutability":"nonpayable"},{"type":"function","name":"fundValidators","inputs":[{"name":"DepositDataArray","type":"tuple[]","internalType":"struct StakePadUtils.BeaconDepositParams[]","components":[{"name":"pubkey","type":"bytes","internalType":"bytes"},{"name":"withdrawal_credentials","type":"bytes","internalType":"bytes"},{"name":"signature","type":"bytes","internalType":"bytes"},{"name":"deposit_data_root","type":"bytes32","internalType":"bytes32"},{"name":"depositValue","type":"uint256","internalType":"uint256"}]}],"outputs":[],"stateMutability":"payable"},{"type":"function","name":"initialize","inputs":[{"name":"newRewardReceiverImpl","type":"address","internalType":"address"}],"outputs":[],"stateMutability":"nonpayable"},{"type":"function","name":"isRegisteredRewardReceiver","inputs":[{"name":"rewardReceiver","type":"address","internalType":"address"}],"outputs":[{"name":"","type":"bool","internalType":"bool"}],"stateMutability":"view"},{"type":"function","name":"owner","inputs":[],"outputs":[{"name":"","type":"address","internalType":"address"}],"stateMutability":"view"},{"type":"function","name":"proxiableUUID","inputs":[],"outputs":[{"name":"","type":"bytes32","internalType":"bytes32"}],"stateMutability":"view"},{"type":"function","name":"renounceOwnership","inputs":[],"outputs":[],"stateMutability":"view"},{"type":"function","name":"retrieveETH","inputs":[],"outputs":[],"stateMutability":"nonpayable"},{"type":"function","name":"rewardReceiverImpl","inputs":[],"outputs":[{"name":"","type":"address","internalType":"address"}],"stateMutability":"view"},{"type":"function","name":"transferOwnership","inputs":[{"name":"newOwner","type":"address","internalType":"address"}],"outputs":[],"stateMutability":"nonpayable"},{"type":"function","name":"updateRewardReceiverImpl","inputs":[{"name":"newRewardReceiverImpl","type":"address","internalType":"address"}],"outputs":[],"stateMutability":"nonpayable"},{"type":"function","name":"upgradeToAndCall","inputs":[{"name":"newImplementation","type":"address","internalType":"address"},{"name":"data","type":"bytes","internalType":"bytes"}],"outputs":[],"stateMutability":"payable"},{"type":"event","name":"Initialized","inputs":[{"name":"version","type":"uint64","indexed":false,"internalType":"uint64"}],"anonymous":false},{"type":"event","name":"NewRewardReceiver","inputs":[{"name":"index","type":"uint256","indexed":true,"internalType":"uint256"},{"name":"rewardReceiver","type":"address","indexed":false,"internalType":"address"},{"name":"client","type":"address","indexed":false,"internalType":"address"},{"name":"provider","type":"address","indexed":false,"internalType":"address"},{"name":"comission","type":"uint96","indexed":false,"internalType":"uint96"}],"anonymous":false},{"type":"event","name":"OwnershipTransferred","inputs":[{"name":"previousOwner","type":"address","indexed":true,"internalType":"address"},{"name":"newOwner","type":"address","indexed":true,"internalType":"address"}],"anonymous":false},{"type":"event","name":"Upgraded","inputs":[{"name":"implementation","type":"address","indexed":true,"internalType":"address"}],"anonymous":false},{"type":"error","name":"AddressEmptyCode","inputs":[{"name":"target","type":"address","internalType":"address"}]},{"type":"error","name":"ERC1967InvalidImplementation","inputs":[{"name":"implementation","type":"address","internalType":"address"}]},{"type":"error","name":"ERC1967NonPayable","inputs":[]},{"type":"error","name":"FailedCall","inputs":[]},{"type":"error","name":"FailedDeployment","inputs":[]},{"type":"error","name":"InsufficientBalance","inputs":[{"name":"balance","type":"uint256","internalType":"uint256"},{"name":"needed","type":"uint256","internalType":"uint256"}]},{"type":"error","name":"InvalidInitialization","inputs":[]},{"type":"error","name":"NotInitializing","inputs":[]},{"type":"error","name":"OwnableInvalidOwner","inputs":[{"name":"owner","type":"address","internalType":"address"}]},{"type":"error","name":"OwnableUnauthorizedAccount","inputs":[{"name":"account","type":"address","internalType":"address"}]},{"type":"error","name":"UUPSUnauthorizedCallContext","inputs":[]},{"type":"error","name":"UUPSUnsupportedProxiableUUID","inputs":[{"name":"slot","type":"bytes32","internalType":"bytes32"}]}],"bytecode":{"object":"0x60c06040523073ffffffffffffffffffffffffffffffffffffffff1660809073ffffffffffffffffffffffffffffffffffffffff1681525034801562000043575f80fd5b506040516200283d3803806200283d833981810160405281019062000069919062000109565b8073ffffffffffffffffffffffffffffffffffffffff1660a08173ffffffffffffffffffffffffffffffffffffffff16815250505062000139565b5f80fd5b5f73ffffffffffffffffffffffffffffffffffffffff82169050919050565b5f620000d382620000a8565b9050919050565b620000e581620000c7565b8114620000f0575f80fd5b50565b5f815190506200010381620000da565b92915050565b5f60208284031215620001215762000120620000a4565b5b5f6200013084828501620000f3565b91505092915050565b60805160a0516126cd620001705f395f81816103a901526106d901525f8181610a2f01528181610a840152610c3e01526126cd5ff3fe6080604052600436106100dc575f3560e01c8063ad3cb1cc1161007e578063c4d66de811610058578063c4d66de814610262578063cfc28a671461028a578063d5b014c3146102b4578063f2fde38b146102ca576100dc565b8063ad3cb1cc146101e0578063b114ba831461020a578063b860d67014610246576100dc565b8063715018a6116100ba578063715018a61461014e5780638da5cb5b14610164578063918da8a51461018e57806398796d48146101b8576100dc565b80634f1ef286146100e057806352d1902d146100fc5780635c96539d14610126575b5f80fd5b6100fa60048036038101906100f5919061198e565b6102f2565b005b348015610107575f80fd5b50610110610311565b60405161011d9190611a00565b60405180910390f35b348015610131575f80fd5b5061014c60048036038101906101479190611a19565b610342565b005b348015610159575f80fd5b50610162610356565b005b34801561016f575f80fd5b50610178610399565b6040516101859190611a53565b60405180910390f35b348015610199575f80fd5b506101a26103a7565b6040516101af9190611ac7565b60405180910390f35b3480156101c3575f80fd5b506101de60048036038101906101d99190611b21565b6103cb565b005b3480156101eb575f80fd5b506101f4610521565b6040516102019190611beb565b60405180910390f35b348015610215575f80fd5b50610230600480360381019061022b9190611a19565b61055a565b60405161023d9190611c25565b60405180910390f35b610260600480360381019061025b9190611c9b565b61056b565b005b34801561026d575f80fd5b5061028860048036038101906102839190611a19565b6107ae565b005b348015610295575f80fd5b5061029e610938565b6040516102ab9190611a53565b60405180910390f35b3480156102bf575f80fd5b506102c861095f565b005b3480156102d5575f80fd5b506102f060048036038101906102eb9190611a19565b610a19565b005b6102fa610a2d565b61030382610b13565b61030d8282610b1e565b5050565b5f61031a610c3c565b7f360894a13ba1a3210667c828492db98dca3e2076cc3735a920a3ca505d382bbc5f1b905090565b61034a610cc3565b61035381610d4a565b50565b61035e610cc3565b6040517f08c379a000000000000000000000000000000000000000000000000000000000815260040161039090611d56565b60405180910390fd5b5f6103a2610dfa565b905090565b7f000000000000000000000000000000000000000000000000000000000000000081565b6103d3610cc3565b5f6103e46103df610938565b610e2f565b90508073ffffffffffffffffffffffffffffffffffffffff1663976b0a77858585306040518563ffffffff1660e01b81526004016104259493929190611d83565b5f604051808303815f87803b15801561043c575f80fd5b505af115801561044e573d5f803e3d5ffd5b505050508073ffffffffffffffffffffffffffffffffffffffff1663f2fde38b610476610399565b6040518263ffffffff1660e01b81526004016104929190611a53565b5f604051808303815f87803b1580156104a9575f80fd5b505af11580156104bb573d5f803e3d5ffd5b505050506104d3816001610e4190919063ffffffff16565b506104de6001610e6e565b7f9e3c9c2af127dbceab3a8ba63b0e9df1d1170515308547c5967e63177bfb0b68828686866040516105139493929190611dc6565b60405180910390a250505050565b6040518060400160405280600581526020017f352e302e3000000000000000000000000000000000000000000000000000000081525081565b5f61056482610e81565b9050919050565b5f805b83839050811015610620575f84848381811061058d5761058c611e09565b5b905060200281019061059f9190611e42565b6080013590506801bc16d674ec80000081101580156105c75750686f05b59d3b200000008111155b610606576040517f08c379a00000000000000000000000000000000000000000000000000000000081526004016105fd90611ed9565b60405180910390fd5b80836106129190611f2d565b92505080600101905061056e565b50803414610663576040517f08c379a000000000000000000000000000000000000000000000000000000000815260040161065a90611fd0565b60405180910390fd5b5f5b838390508110156107a8573684848381811061068457610683611e09565b5b90506020028101906106969190611e42565b90506106b08180602001906106ab9190611fee565b610e9d565b6106d781805f01906106c29190611fee565b8380602001906106d29190611fee565b610f83565b7f000000000000000000000000000000000000000000000000000000000000000073ffffffffffffffffffffffffffffffffffffffff166322895118826080013583805f01906107279190611fee565b8580602001906107379190611fee565b8780604001906107479190611fee565b89606001356040518963ffffffff1660e01b815260040161076e979695949392919061208c565b5f604051808303818588803b158015610785575f80fd5b505af1158015610797573d5f803e3d5ffd5b505050505050806001019050610665565b50505050565b5f6107b7611057565b90505f815f0160089054906101000a900460ff161590505f825f015f9054906101000a900467ffffffffffffffff1690505f808267ffffffffffffffff161480156107ff5750825b90505f60018367ffffffffffffffff1614801561083257505f3073ffffffffffffffffffffffffffffffffffffffff163b145b905081158015610840575080155b15610877576040517ff92ee8a900000000000000000000000000000000000000000000000000000000815260040160405180910390fd5b6001855f015f6101000a81548167ffffffffffffffff021916908367ffffffffffffffff16021790555083156108c4576001855f0160086101000a81548160ff0219169083151502179055505b6108cd86610d4a565b6108d63361106a565b8315610930575f855f0160086101000a81548160ff0219169083151502179055507fc7f505b2f371ae2175ee4913f4499e1f2633a7b5936321eed1cdaeb6115181d260016040516109279190612136565b60405180910390a15b505050505050565b5f805f9054906101000a900473ffffffffffffffffffffffffffffffffffffffff16905090565b610967610cc3565b5f610970610399565b73ffffffffffffffffffffffffffffffffffffffff16476040516109939061217c565b5f6040518083038185875af1925050503d805f81146109cd576040519150601f19603f3d011682016040523d82523d5f602084013e6109d2565b606091505b5050905080610a16576040517f08c379a0000000000000000000000000000000000000000000000000000000008152600401610a0d906121da565b60405180910390fd5b50565b610a21610cc3565b610a2a8161107e565b50565b7f000000000000000000000000000000000000000000000000000000000000000073ffffffffffffffffffffffffffffffffffffffff163073ffffffffffffffffffffffffffffffffffffffff161480610ada57507f000000000000000000000000000000000000000000000000000000000000000073ffffffffffffffffffffffffffffffffffffffff16610ac1611102565b73ffffffffffffffffffffffffffffffffffffffff1614155b15610b11576040517fe07c8dba00000000000000000000000000000000000000000000000000000000815260040160405180910390fd5b565b610b1b610cc3565b50565b8173ffffffffffffffffffffffffffffffffffffffff166352d1902d6040518163ffffffff1660e01b8152600401602060405180830381865afa925050508015610b8657506040513d601f19601f82011682018060405250810190610b839190612222565b60015b610bc757816040517f4c9c8ce3000000000000000000000000000000000000000000000000000000008152600401610bbe9190611a53565b60405180910390fd5b7f360894a13ba1a3210667c828492db98dca3e2076cc3735a920a3ca505d382bbc5f1b8114610c2d57806040517faa1d49a4000000000000000000000000000000000000000000000000000000008152600401610c249190611a00565b60405180910390fd5b610c378383611155565b505050565b7f000000000000000000000000000000000000000000000000000000000000000073ffffffffffffffffffffffffffffffffffffffff163073ffffffffffffffffffffffffffffffffffffffff1614610cc1576040517fe07c8dba00000000000000000000000000000000000000000000000000000000815260040160405180910390fd5b565b610ccb6111c7565b73ffffffffffffffffffffffffffffffffffffffff16610ce9610399565b73ffffffffffffffffffffffffffffffffffffffff1614610d4857610d0c6111c7565b6040517f118cdaa7000000000000000000000000000000000000000000000000000000008152600401610d3f9190611a53565b60405180910390fd5b565b5f73ffffffffffffffffffffffffffffffffffffffff168173ffffffffffffffffffffffffffffffffffffffff1603610db8576040517f08c379a0000000000000000000000000000000000000000000000000000000008152600401610daf906122bd565b60405180910390fd5b805f806101000a81548173ffffffffffffffffffffffffffffffffffffffff021916908373ffffffffffffffffffffffffffffffffffffffff16021790555050565b5f80610e046111ce565b9050805f015f9054906101000a900473ffffffffffffffffffffffffffffffffffffffff1691505090565b5f610e3a825f6111f5565b9050919050565b5f610e66835f018373ffffffffffffffffffffffffffffffffffffffff165f1b6112ea565b905092915050565b5f610e7a825f01611351565b9050919050565b5f610e9682600161136090919063ffffffff16565b9050919050565b60208282905014610ee3576040517f08c379a0000000000000000000000000000000000000000000000000000000008152600401610eda9061234b565b60405180910390fd5b5f8282600c908092610ef793929190612371565b90610f0291906123ec565b60601c9050610f1081610e81565b8015610f3f5750600283835f90600192610f2c93929190612371565b90610f379190612475565b60f81c60ff16145b610f7e576040517f08c379a0000000000000000000000000000000000000000000000000000000008152600401610f7590612543565b60405180910390fd5b505050565b60308484905014610fc9576040517f08c379a0000000000000000000000000000000000000000000000000000000008152600401610fc0906125d1565b60405180910390fd5b8181600c908092610fdc93929190612371565b90610fe791906123ec565b60601c73ffffffffffffffffffffffffffffffffffffffff1663a6d1ec5d85856040518363ffffffff1660e01b81526004016110249291906125ef565b5f604051808303815f87803b15801561103b575f80fd5b505af115801561104d573d5f803e3d5ffd5b5050505050505050565b5f8061106161138d565b90508091505090565b6110726113b6565b61107b816113f6565b50565b611086610cc3565b5f73ffffffffffffffffffffffffffffffffffffffff168173ffffffffffffffffffffffffffffffffffffffff16036110f6575f6040517f1e4fbdf70000000000000000000000000000000000000000000000000000000081526004016110ed9190611a53565b60405180910390fd5b6110ff8161147a565b50565b5f61112e7f360894a13ba1a3210667c828492db98dca3e2076cc3735a920a3ca505d382bbc5f1b61154b565b5f015f9054906101000a900473ffffffffffffffffffffffffffffffffffffffff16905090565b61115e82611554565b8173ffffffffffffffffffffffffffffffffffffffff167fbc7cd75a20ee27fd9adebab32041f755214dbc6bffa90cc0225b39da2e5c2d3b60405160405180910390a25f815111156111ba576111b4828261161d565b506111c3565b6111c261169d565b5b5050565b5f33905090565b5f7f9016d09d72d40fdae2fd8ceac6b6234c7706214fd39c1cd1e609a0528c199300905090565b5f8147101561123d5747826040517fcf479181000000000000000000000000000000000000000000000000000000008152600401611234929190612620565b60405180910390fd5b763d602d80600a3d3981f3363d3d373d3d3d363d730000008360601b60e81c175f526e5af43d82803e903d91602b57fd5bf38360781b176020526037600983f090505f73ffffffffffffffffffffffffffffffffffffffff168173ffffffffffffffffffffffffffffffffffffffff16036112e4576040517fb06ebf3d00000000000000000000000000000000000000000000000000000000815260040160405180910390fd5b92915050565b5f6112f583836116d9565b61134757825f0182908060018154018082558091505060019003905f5260205f20015f9091909190915055825f0180549050836001015f8481526020019081526020015f20819055506001905061134b565b5f90505b92915050565b5f815f01805490509050919050565b5f611385835f018373ffffffffffffffffffffffffffffffffffffffff165f1b6116d9565b905092915050565b5f7ff0c57e16840df040f15088dc2f81fe391c3923bec73e23a9662efc9c229c6a005f1b905090565b6113be6116f9565b6113f4576040517fd7e6bcf800000000000000000000000000000000000000000000000000000000815260040160405180910390fd5b565b6113fe6113b6565b5f73ffffffffffffffffffffffffffffffffffffffff168173ffffffffffffffffffffffffffffffffffffffff160361146e575f6040517f1e4fbdf70000000000000000000000000000000000000000000000000000000081526004016114659190611a53565b60405180910390fd5b6114778161147a565b50565b5f6114836111ce565b90505f815f015f9054906101000a900473ffffffffffffffffffffffffffffffffffffffff16905082825f015f6101000a81548173ffffffffffffffffffffffffffffffffffffffff021916908373ffffffffffffffffffffffffffffffffffffffff1602179055508273ffffffffffffffffffffffffffffffffffffffff168173ffffffffffffffffffffffffffffffffffffffff167f8be0079c531659141344cd1fd0a4f28419497f9722a3daafe3b4186f6b6457e060405160405180910390a3505050565b5f819050919050565b5f8173ffffffffffffffffffffffffffffffffffffffff163b036115af57806040517f4c9c8ce30000000000000000000000000000000000000000000000000000000081526004016115a69190611a53565b60405180910390fd5b806115db7f360894a13ba1a3210667c828492db98dca3e2076cc3735a920a3ca505d382bbc5f1b61154b565b5f015f6101000a81548173ffffffffffffffffffffffffffffffffffffffff021916908373ffffffffffffffffffffffffffffffffffffffff16021790555050565b60605f808473ffffffffffffffffffffffffffffffffffffffff16846040516116469190612681565b5f60405180830381855af49150503d805f811461167e576040519150601f19603f3d011682016040523d82523d5f602084013e611683565b606091505b5091509150611693858383611717565b9250505092915050565b5f3411156116d7576040517fb398979f00000000000000000000000000000000000000000000000000000000815260040160405180910390fd5b565b5f80836001015f8481526020019081526020015f20541415905092915050565b5f611702611057565b5f0160089054906101000a900460ff16905090565b60608261172c57611727826117a4565b61179c565b5f825114801561175257505f8473ffffffffffffffffffffffffffffffffffffffff163b145b1561179457836040517f9996b31500000000000000000000000000000000000000000000000000000000815260040161178b9190611a53565b60405180910390fd5b81905061179d565b5b9392505050565b5f815111156117b557805160208201fd5b6040517fd6bda27500000000000000000000000000000000000000000000000000000000815260040160405180910390fd5b5f604051905090565b5f80fd5b5f80fd5b5f73ffffffffffffffffffffffffffffffffffffffff82169050919050565b5f611821826117f8565b9050919050565b61183181611817565b811461183b575f80fd5b50565b5f8135905061184c81611828565b92915050565b5f80fd5b5f80fd5b5f601f19601f8301169050919050565b7f4e487b71000000000000000000000000000000000000000000000000000000005f52604160045260245ffd5b6118a08261185a565b810181811067ffffffffffffffff821117156118bf576118be61186a565b5b80604052505050565b5f6118d16117e7565b90506118dd8282611897565b919050565b5f67ffffffffffffffff8211156118fc576118fb61186a565b5b6119058261185a565b9050602081019050919050565b828183375f83830152505050565b5f61193261192d846118e2565b6118c8565b90508281526020810184848401111561194e5761194d611856565b5b611959848285611912565b509392505050565b5f82601f83011261197557611974611852565b5b8135611985848260208601611920565b91505092915050565b5f80604083850312156119a4576119a36117f0565b5b5f6119b18582860161183e565b925050602083013567ffffffffffffffff8111156119d2576119d16117f4565b5b6119de85828601611961565b9150509250929050565b5f819050919050565b6119fa816119e8565b82525050565b5f602082019050611a135f8301846119f1565b92915050565b5f60208284031215611a2e57611a2d6117f0565b5b5f611a3b8482850161183e565b91505092915050565b611a4d81611817565b82525050565b5f602082019050611a665f830184611a44565b92915050565b5f819050919050565b5f611a8f611a8a611a85846117f8565b611a6c565b6117f8565b9050919050565b5f611aa082611a75565b9050919050565b5f611ab182611a96565b9050919050565b611ac181611aa7565b82525050565b5f602082019050611ada5f830184611ab8565b92915050565b5f6bffffffffffffffffffffffff82169050919050565b611b0081611ae0565b8114611b0a575f80fd5b50565b5f81359050611b1b81611af7565b92915050565b5f805f60608486031215611b3857611b376117f0565b5b5f611b458682870161183e565b9350506020611b568682870161183e565b9250506040611b6786828701611b0d565b9150509250925092565b5f81519050919050565b5f82825260208201905092915050565b5f5b83811015611ba8578082015181840152602081019050611b8d565b5f8484015250505050565b5f611bbd82611b71565b611bc78185611b7b565b9350611bd7818560208601611b8b565b611be08161185a565b840191505092915050565b5f6020820190508181035f830152611c038184611bb3565b905092915050565b5f8115159050919050565b611c1f81611c0b565b82525050565b5f602082019050611c385f830184611c16565b92915050565b5f80fd5b5f80fd5b5f8083601f840112611c5b57611c5a611852565b5b8235905067ffffffffffffffff811115611c7857611c77611c3e565b5b602083019150836020820283011115611c9457611c93611c42565b5b9250929050565b5f8060208385031215611cb157611cb06117f0565b5b5f83013567ffffffffffffffff811115611cce57611ccd6117f4565b5b611cda85828601611c46565b92509250509250929050565b7f5374616b6550616456313a2063616e6e6f742072656e6f756e6365206f776e655f8201527f7273686970000000000000000000000000000000000000000000000000000000602082015250565b5f611d40602583611b7b565b9150611d4b82611ce6565b604082019050919050565b5f6020820190508181035f830152611d6d81611d34565b9050919050565b611d7d81611ae0565b82525050565b5f608082019050611d965f830187611a44565b611da36020830186611a44565b611db06040830185611d74565b611dbd6060830184611a44565b95945050505050565b5f608082019050611dd95f830187611a44565b611de66020830186611a44565b611df36040830185611a44565b611e006060830184611d74565b95945050505050565b7f4e487b71000000000000000000000000000000000000000000000000000000005f52603260045260245ffd5b5f80fd5b5f80fd5b5f80fd5b5f8235600160a003833603038112611e5d57611e5c611e36565b5b80830191505092915050565b7f5374616b6550616456313a206465706f736974206d75737420626520626574775f8201527f65656e20333220616e6420323034382045544800000000000000000000000000602082015250565b5f611ec3603383611b7b565b9150611ece82611e69565b604082019050919050565b5f6020820190508181035f830152611ef081611eb7565b9050919050565b5f819050919050565b7f4e487b71000000000000000000000000000000000000000000000000000000005f52601160045260245ffd5b5f611f3782611ef7565b9150611f4283611ef7565b9250828201905080821115611f5a57611f59611f00565b5b92915050565b7f5374616b6550616456313a20696e636f727265637420616d6f756e74206f66205f8201527f4554480000000000000000000000000000000000000000000000000000000000602082015250565b5f611fba602383611b7b565b9150611fc582611f60565b604082019050919050565b5f6020820190508181035f830152611fe781611fae565b9050919050565b5f808335600160200384360303811261200a57612009611e36565b5b80840192508235915067ffffffffffffffff82111561202c5761202b611e3a565b5b60208301925060018202360383131561204857612047611e3e565b5b509250929050565b5f82825260208201905092915050565b5f61206b8385612050565b9350612078838584611912565b6120818361185a565b840190509392505050565b5f6080820190508181035f8301526120a581898b612060565b905081810360208301526120ba818789612060565b905081810360408301526120cf818587612060565b90506120de60608301846119f1565b98975050505050505050565b5f819050919050565b5f67ffffffffffffffff82169050919050565b5f61212061211b612116846120ea565b611a6c565b6120f3565b9050919050565b61213081612106565b82525050565b5f6020820190506121495f830184612127565b92915050565b5f81905092915050565b50565b5f6121675f8361214f565b915061217282612159565b5f82019050919050565b5f6121868261215c565b9150819050919050565b7f5374616b6550616456313a207265747269657665455448206661696c656400005f82015250565b5f6121c4601e83611b7b565b91506121cf82612190565b602082019050919050565b5f6020820190508181035f8301526121f1816121b8565b9050919050565b612201816119e8565b811461220b575f80fd5b50565b5f8151905061221c816121f8565b92915050565b5f60208284031215612237576122366117f0565b5b5f6122448482850161220e565b91505092915050565b7f5374616b6550616456313a206e657720696d706c656d656e746174696f6e20695f8201527f7320746865207a65726f20616464726573730000000000000000000000000000602082015250565b5f6122a7603283611b7b565b91506122b28261224d565b604082019050919050565b5f6020820190508181035f8301526122d48161229b565b9050919050565b7f5374616b6550616456313a20696e76616c6964207769746864726177616c5f635f8201527f726564656e7469616c73206c656e677468000000000000000000000000000000602082015250565b5f612335603183611b7b565b9150612340826122db565b604082019050919050565b5f6020820190508181035f83015261236281612329565b9050919050565b5f80fd5b5f80fd5b5f808585111561238457612383612369565b5b838611156123955761239461236d565b5b6001850283019150848603905094509492505050565b5f82905092915050565b5f7fffffffffffffffffffffffffffffffffffffffff00000000000000000000000082169050919050565b5f82821b905092915050565b5f6123f783836123ab565b8261240281356123b5565b925060148210156124425761243d7fffffffffffffffffffffffffffffffffffffffff000000000000000000000000836014036008026123e0565b831692505b505092915050565b5f7fff0000000000000000000000000000000000000000000000000000000000000082169050919050565b5f61248083836123ab565b8261248b813561244a565b925060018210156124cb576124c67fff00000000000000000000000000000000000000000000000000000000000000836001036008026123e0565b831692505b505092915050565b7f5374616b6550616456313a20696e76616c6964207769746864726177616c5f635f8201527f726564656e7469616c7300000000000000000000000000000000000000000000602082015250565b5f61252d602a83611b7b565b9150612538826124d3565b604082019050919050565b5f6020820190508181035f83015261255a81612521565b9050919050565b7f5374616b6550616456313a20696e76616c6964207075626b6579206c656e67745f8201527f6800000000000000000000000000000000000000000000000000000000000000602082015250565b5f6125bb602183611b7b565b91506125c682612561565b604082019050919050565b5f6020820190508181035f8301526125e8816125af565b9050919050565b5f6020820190508181035f830152612608818486612060565b90509392505050565b61261a81611ef7565b82525050565b5f6040820190506126335f830185612611565b6126406020830184612611565b9392505050565b5f81519050919050565b5f61265b82612647565b612665818561214f565b9350612675818560208601611b8b565b80840191505092915050565b5f61268c8284612651565b91508190509291505056fea26469706673582212202e53acaa82a61ea8d31337fb27090b0928b9e3c8f71e4578f8c8a385b38c461c64736f6c63430008160033","linkReferences":{}},"methodIdentifiers":{"UPGRADE_INTERFACE_VERSION()":"ad3cb1cc","beaconDeposit()":"918da8a5","deployNewRewardReceiver(address,address,uint96)":"98796d48","fundValidators((bytes,bytes,bytes,bytes32,uint256)[])":"b860d670","initialize(address)":"c4d66de8","isRegisteredRewardReceiver(address)":"b114ba83","owner()":"8da5cb5b","proxiableUUID()":"52d1902d","renounceOwnership()":"715018a6","retrieveETH()":"d5b014c3","rewardReceiverImpl()":"cfc28a67","transferOwnership(address)":"f2fde38b","updateRewardReceiverImpl(address)":"5c96539d","upgradeToAndCall(address,bytes)":"4f1ef286"},"id":51}