{"abi":[{"type":"constructor","inputs":[],"stateMutability":"nonpayable"},{"type":"function","name":"deposit","inputs":[{"name":"pubkey","type":"bytes","internalType":"bytes"},{"name":"withdrawal_credentials","type":"bytes","internalType":"bytes"},{"name":"signature","type":"bytes","internalType":"bytes"},{"name":"deposit_data_root","type":"bytes32","internalType":"bytes32"}],"outputs":[],"stateMutability":"payable"},{"type":"function","name":"get_deposit_count","inputs":[],"outputs":[{"name":"","type":"bytes","internalType":"bytes"}],"stateMutability":"view"},{"type":"function","name":"get_deposit_root","inputs":[],"outputs":[{"name":"","type":"bytes32","internalType":"bytes32"}],"stateMutability":"view"},{"type":"function","name":"supportsInterface","inputs":[{"name":"interfaceId","type":"bytes4","internalType":"bytes4"}],"outputs":[{"name":"","type":"bool","internalType":"bool"}],"stateMutability":"pure"},{"type":"function","name":"testOk","inputs":[],"outputs":[],"stateMutability":"nonpayable"},{"type":"event","name":"DepositEvent","inputs":[{"name":"pubkey","type":"bytes","indexed":false,"internalType":"bytes"},{"name":"withdrawal_credentials","type":"bytes","indexed":false,"internalType":"bytes"},{"name":"amount","type":"bytes","indexed":false,"internalType":"bytes"},{"name":"signature","type":"bytes","indexed":false,"internalType":"bytes"},{"name":"index","type":"bytes","indexed":false,"internalType":"bytes"}],"anonymous":false}],"bytecode":{"object":"0x608060405234801562000010575f80fd5b505f5b6001602062000023919062000146565b811015620001095760026021826020811062000044576200004362000180565b5b0154602183602081106200005d576200005c62000180565b5b015460405160200162000072929190620001da565b6040516020818303038152906040526040516200009091906200027d565b602060405180830381855afa158015620000ac573d5f803e3d5ffd5b5050506040513d601f19601f82011682018060405250810190620000d19190620002c8565b6021600183620000e29190620002f8565b60208110620000f657620000f562000180565b5b0181905550808060010191505062000013565b5062000332565b5f819050919050565b7f4e487b71000000000000000000000000000000000000000000000000000000005f52601160045260245ffd5b5f620001528262000110565b91506200015f8362000110565b92508282039050818111156200017a576200017962000119565b5b92915050565b7f4e487b71000000000000000000000000000000000000000000000000000000005f52603260045260245ffd5b5f819050919050565b5f819050919050565b620001d4620001ce82620001ad565b620001b6565b82525050565b5f620001e78285620001bf565b602082019150620001f98284620001bf565b6020820191508190509392505050565b5f81519050919050565b5f81905092915050565b5f5b838110156200023c5780820151818401526020810190506200021f565b5f8484015250505050565b5f620002538262000209565b6200025f818562000213565b9350620002718185602086016200021d565b80840191505092915050565b5f6200028a828462000247565b915081905092915050565b5f80fd5b620002a481620001ad565b8114620002af575f80fd5b50565b5f81519050620002c28162000299565b92915050565b5f60208284031215620002e057620002df62000295565b5b5f620002ef84828501620002b2565b91505092915050565b5f620003048262000110565b9150620003118362000110565b92508282019050808211156200032c576200032b62000119565b5b92915050565b61107480620003405f395ff3fe608060405260043610610049575f3560e01c806301ffc9a71461004d5780632289511814610089578063621fd130146100a5578063c5f2892f146100cf578063d58bc31a146100f9575b5f80fd5b348015610058575f80fd5b50610073600480360381019061006e91906108b7565b61010f565b60405161008091906108fc565b60405180910390f35b6100a3600480360381019061009e91906109a9565b6101e0565b005b3480156100b0575f80fd5b506100b9610349565b6040516100c69190610af7565b60405180910390f35b3480156100da575f80fd5b506100e361035b565b6040516100f09190610b26565b60405180910390f35b348015610104575f80fd5b5061010d61052b565b005b5f7f01ffc9a7000000000000000000000000000000000000000000000000000000007bffffffffffffffffffffffffffffffffffffffffffffffffffffffff1916827bffffffffffffffffffffffffffffffffffffffffffffffffffffffff191614806101d957507f85640907000000000000000000000000000000000000000000000000000000007bffffffffffffffffffffffffffffffffffffffffffffffffffffffff1916827bffffffffffffffffffffffffffffffffffffffffffffffffffffffff1916145b9050919050565b60308787905014610226576040517f08c379a000000000000000000000000000000000000000000000000000000000815260040161021d90610bbf565b60405180910390fd5b6060838390501461026c576040517f08c379a000000000000000000000000000000000000000000000000000000000815260040161026390610c4d565b60405180910390fd5b5f633b9aca003461027d9190610cce565b905067ffffffffffffffff80168111156102cc576040517f08c379a00000000000000000000000000000000000000000000000000000000081526004016102c390610d6e565b60405180910390fd5b5f6102d68261052d565b90507f649bbc62d0e31342afea4e5cd82d4049e7e1ee912fc0889aa790803be39038c589898989858a8a61030b60205461052d565b60405161031f989796959493929190610dc6565b60405180910390a160205f81548092919061033990610e40565b9190505550505050505050505050565b606061035660205461052d565b905090565b5f805f60205490505f5b60208110156104a5576001808316036104025760025f826020811061038d5761038c610e87565b5b0154846040516020016103a1929190610ed4565b6040516020818303038152906040526040516103bd9190610f39565b602060405180830381855afa1580156103d8573d5f803e3d5ffd5b5050506040513d601f19601f820116820180604052508101906103fb9190610f63565b9250610489565b6002836021836020811061041957610418610e87565b5b015460405160200161042c929190610ed4565b6040516020818303038152906040526040516104489190610f39565b602060405180830381855afa158015610463573d5f803e3d5ffd5b5050506040513d601f19601f820116820180604052508101906104869190610f63565b92505b6002826104969190610cce565b91508080600101915050610365565b506002826104b460205461052d565b5f60401b6040516020016104ca93929190610fd9565b6040516020818303038152906040526040516104e69190610f39565b602060405180830381855afa158015610501573d5f803e3d5ffd5b5050506040513d601f19601f820116820180604052508101906105249190610f63565b9250505090565b565b6060600867ffffffffffffffff81111561054a57610549611011565b5b6040519080825280601f01601f19166020018201604052801561057c5781602001600182028036833780820191505090505b5090505f8260c01b90508060076008811061059a57610599610e87565b5b1a60f81b825f815181106105b1576105b0610e87565b5b60200101907effffffffffffffffffffffffffffffffffffffffffffffffffffffffffffff191690815f1a905350806006600881106105f3576105f2610e87565b5b1a60f81b8260018151811061060b5761060a610e87565b5b60200101907effffffffffffffffffffffffffffffffffffffffffffffffffffffffffffff191690815f1a9053508060056008811061064d5761064c610e87565b5b1a60f81b8260028151811061066557610664610e87565b5b60200101907effffffffffffffffffffffffffffffffffffffffffffffffffffffffffffff191690815f1a905350806004600881106106a7576106a6610e87565b5b1a60f81b826003815181106106bf576106be610e87565b5b60200101907effffffffffffffffffffffffffffffffffffffffffffffffffffffffffffff191690815f1a9053508060036008811061070157610700610e87565b5b1a60f81b8260048151811061071957610718610e87565b5b60200101907effffffffffffffffffffffffffffffffffffffffffffffffffffffffffffff191690815f1a9053508060026008811061075b5761075a610e87565b5b1a60f81b8260058151811061077357610772610e87565b5b60200101907effffffffffffffffffffffffffffffffffffffffffffffffffffffffffffff191690815f1a905350806001600881106107b5576107b4610e87565b5b1a60f81b826006815181106107cd576107cc610e87565b5b60200101907effffffffffffffffffffffffffffffffffffffffffffffffffffffffffffff191690815f1a905350805f6008811061080e5761080d610e87565b5b1a60f81b8260078151811061082657610825610e87565b5b60200101907effffffffffffffffffffffffffffffffffffffffffffffffffffffffffffff191690815f1a90535050919050565b5f80fd5b5f80fd5b5f7fffffffff0000000000000000000000000000000000000000000000000000000082169050919050565b61089681610862565b81146108a0575f80fd5b50565b5f813590506108b18161088d565b92915050565b5f602082840312156108cc576108cb61085a565b5b5f6108d9848285016108a3565b91505092915050565b5f8115159050919050565b6108f6816108e2565b82525050565b5f60208201905061090f5f8301846108ed565b92915050565b5f80fd5b5f80fd5b5f80fd5b5f8083601f84011261093657610935610915565b5b8235905067ffffffffffffffff81111561095357610952610919565b5b60208301915083600182028301111561096f5761096e61091d565b5b9250929050565b5f819050919050565b61098881610976565b8114610992575f80fd5b50565b5f813590506109a38161097f565b92915050565b5f805f805f805f6080888a0312156109c4576109c361085a565b5b5f88013567ffffffffffffffff8111156109e1576109e061085e565b5b6109ed8a828b01610921565b9750975050602088013567ffffffffffffffff811115610a1057610a0f61085e565b5b610a1c8a828b01610921565b9550955050604088013567ffffffffffffffff811115610a3f57610a3e61085e565b5b610a4b8a828b01610921565b93509350506060610a5e8a828b01610995565b91505092959891949750929550565b5f81519050919050565b5f82825260208201905092915050565b5f5b83811015610aa4578082015181840152602081019050610a89565b5f8484015250505050565b5f601f19601f8301169050919050565b5f610ac982610a6d565b610ad38185610a77565b9350610ae3818560208601610a87565b610aec81610aaf565b840191505092915050565b5f6020820190508181035f830152610b0f8184610abf565b905092915050565b610b2081610976565b82525050565b5f602082019050610b395f830184610b17565b92915050565b5f82825260208201905092915050565b7f4465706f736974436f6e74726163743a20696e76616c6964207075626b6579205f8201527f6c656e6774680000000000000000000000000000000000000000000000000000602082015250565b5f610ba9602683610b3f565b9150610bb482610b4f565b604082019050919050565b5f6020820190508181035f830152610bd681610b9d565b9050919050565b7f4465706f736974436f6e74726163743a20696e76616c6964207369676e6174755f8201527f7265206c656e6774680000000000000000000000000000000000000000000000602082015250565b5f610c37602983610b3f565b9150610c4282610bdd565b604082019050919050565b5f6020820190508181035f830152610c6481610c2b565b9050919050565b5f819050919050565b7f4e487b71000000000000000000000000000000000000000000000000000000005f52601260045260245ffd5b7f4e487b71000000000000000000000000000000000000000000000000000000005f52601160045260245ffd5b5f610cd882610c6b565b9150610ce383610c6b565b925082610cf357610cf2610c74565b5b828204905092915050565b7f4465706f736974436f6e74726163743a206465706f7369742076616c756520745f8201527f6f6f206869676800000000000000000000000000000000000000000000000000602082015250565b5f610d58602783610b3f565b9150610d6382610cfe565b604082019050919050565b5f6020820190508181035f830152610d8581610d4c565b9050919050565b828183375f83830152505050565b5f610da58385610a77565b9350610db2838584610d8c565b610dbb83610aaf565b840190509392505050565b5f60a0820190508181035f830152610ddf818a8c610d9a565b90508181036020830152610df481888a610d9a565b90508181036040830152610e088187610abf565b90508181036060830152610e1d818587610d9a565b90508181036080830152610e318184610abf565b90509998505050505050505050565b5f610e4a82610c6b565b91507fffffffffffffffffffffffffffffffffffffffffffffffffffffffffffffffff8203610e7c57610e7b610ca1565b5b600182019050919050565b7f4e487b71000000000000000000000000000000000000000000000000000000005f52603260045260245ffd5b5f819050919050565b610ece610ec982610976565b610eb4565b82525050565b5f610edf8285610ebd565b602082019150610eef8284610ebd565b6020820191508190509392505050565b5f81905092915050565b5f610f1382610a6d565b610f1d8185610eff565b9350610f2d818560208601610a87565b80840191505092915050565b5f610f448284610f09565b915081905092915050565b5f81519050610f5d8161097f565b92915050565b5f60208284031215610f7857610f7761085a565b5b5f610f8584828501610f4f565b91505092915050565b5f7fffffffffffffffffffffffffffffffffffffffffffffffff000000000000000082169050919050565b5f819050919050565b610fd3610fce82610f8e565b610fb9565b82525050565b5f610fe48286610ebd565b602082019150610ff48285610f09565b91506110008284610fc2565b601882019150819050949350505050565b7f4e487b71000000000000000000000000000000000000000000000000000000005f52604160045260245ffdfea2646970667358221220e57c0c1354b38a3ddc052be77163b98db2899e914736d83401b33fda5816138964736f6c63430008160033","linkReferences":{}},"methodIdentifiers":{"deposit(bytes,bytes,bytes,bytes32)":"22895118","get_deposit_count()":"621fd130","get_deposit_root()":"c5f2892f","supportsInterface(bytes4)":"01ffc9a7","testOk()":"d58bc31a"},"id":48}