{"abi":[{"type":"receive","stateMutability":"payable"},{"type":"function","name":"BASIS_PTS","inputs":[],"outputs":[{"name":"","type":"uint96","internalType":"uint96"}],"stateMutability":"view"},{"type":"function","name":"INIT_WITHDRAWAL_THRESHOLD","inputs":[],"outputs":[{"name":"","type":"uint256","internalType":"uint256"}],"stateMutability":"view"},{"type":"function","name":"acceptNewCommission","inputs":[],"outputs":[],"stateMutability":"nonpayable"},{"type":"function","name":"acceptNewWithdrawalThreshold","inputs":[],"outputs":[],"stateMutability":"nonpayable"},{"type":"function","name":"addValidator","inputs":[{"name":"pubkey","type":"bytes","internalType":"bytes"}],"outputs":[],"stateMutability":"nonpayable"},{"type":"function","name":"cancelNewCommission","inputs":[],"outputs":[],"stateMutability":"nonpayable"},{"type":"function","name":"cancelNewWithdrawalThreshold","inputs":[],"outputs":[],"stateMutability":"nonpayable"},{"type":"function","name":"changeStakePad","inputs":[{"name":"newStakePad","type":"address","internalType":"address"}],"outputs":[],"stateMutability":"nonpayable"},{"type":"function","name":"client","inputs":[],"outputs":[{"name":"","type":"address","internalType":"address"}],"stateMutability":"view"},{"type":"function","name":"commission","inputs":[],"outputs":[{"name":"","type":"uint96","internalType":"uint96"}],"stateMutability":"view"},{"type":"function","name":"getValidators","inputs":[],"outputs":[{"name":"","type":"bytes[]","internalType":"bytes[]"}],"stateMutability":"view"},{"type":"function","name":"initialize","inputs":[{"name":"newClient","type":"address","internalType":"address"},{"name":"newProvider","type":"address","internalType":"address"},{"name":"newCommission","type":"uint96","internalType":"uint96"},{"name":"newStakePad","type":"address","internalType":"address"}],"outputs":[],"stateMutability":"nonpayable"},{"type":"function","name":"owner","inputs":[],"outputs":[{"name":"","type":"address","internalType":"address"}],"stateMutability":"view"},{"type":"function","name":"pendingCommission","inputs":[],"outputs":[{"name":"","type":"uint96","internalType":"uint96"}],"stateMutability":"view"},{"type":"function","name":"pendingWithdrawalThreshold","inputs":[],"outputs":[{"name":"","type":"uint256","internalType":"uint256"}],"stateMutability":"view"},{"type":"function","name":"percentageWithdraw","inputs":[{"name":"percentage","type":"uint96","internalType":"uint96"}],"outputs":[],"stateMutability":"nonpayable"},{"type":"function","name":"proposeNewCommission","inputs":[{"name":"newCommission","type":"uint96","internalType":"uint96"}],"outputs":[],"stateMutability":"nonpayable"},{"type":"function","name":"proposeNewWithdrawalThreshold","inputs":[{"name":"newWithdrawalThreshold","type":"uint256","internalType":"uint256"}],"outputs":[],"stateMutability":"nonpayable"},{"type":"function","name":"provider","inputs":[],"outputs":[{"name":"","type":"address","internalType":"address"}],"stateMutability":"view"},{"type":"function","name":"removeValidator","inputs":[{"name":"index","type":"uint256","internalType":"uint256"}],"outputs":[],"stateMutability":"nonpayable"},{"type":"function","name":"renounceOwnership","inputs":[],"outputs":[],"stateMutability":"pure"},{"type":"function","name":"stakePad","inputs":[],"outputs":[{"name":"","type":"address","internalType":"address"}],"stateMutability":"view"},{"type":"function","name":"transferOwnership","inputs":[{"name":"newOwner","type":"address","internalType":"address"}],"outputs":[],"stateMutability":"nonpayable"},{"type":"function","name":"validators","inputs":[{"name":"","type":"uint256","internalType":"uint256"}],"outputs":[{"name":"","type":"bytes","internalType":"bytes"}],"stateMutability":"view"},{"type":"function","name":"withdraw","inputs":[],"outputs":[],"stateMutability":"nonpayable"},{"type":"function","name":"withdrawalThreshold","inputs":[],"outputs":[{"name":"","type":"uint256","internalType":"uint256"}],"stateMutability":"view"},{"type":"event","name":"CommissionSent","inputs":[{"name":"","type":"address","indexed":true,"internalType":"address"},{"name":"","type":"uint256","indexed":false,"internalType":"uint256"}],"anonymous":false},{"type":"event","name":"Initialized","inputs":[{"name":"version","type":"uint64","indexed":false,"internalType":"uint64"}],"anonymous":false},{"type":"event","name":"OwnershipTransferred","inputs":[{"name":"previousOwner","type":"address","indexed":true,"internalType":"address"},{"name":"newOwner","type":"address","indexed":true,"internalType":"address"}],"anonymous":false},{"type":"event","name":"RewardSent","inputs":[{"name":"","type":"address","indexed":true,"internalType":"address"},{"name":"","type":"uint256","indexed":false,"internalType":"uint256"}],"anonymous":false},{"type":"error","name":"InvalidInitialization","inputs":[]},{"type":"error","name":"NotInitializing","inputs":[]},{"type":"error","name":"OwnableInvalidOwner","inputs":[{"name":"owner","type":"address","internalType":"address"}]},{"type":"error","name":"OwnableUnauthorizedAccount","inputs":[{"name":"account","type":"address","internalType":"address"}]}],"bytecode":{"object":"0x608060405234801561000f575f80fd5b5061330e8061001d5f395ff3fe608060405260043610610184575f3560e01c80638da5cb5b116100d0578063bf56f05e11610089578063f01daef111610063578063f01daef1146104bb578063f2fde38b146104e5578063f94e18671461050d578063fd2753b9146105355761018b565b8063bf56f05e14610451578063c97686561461047b578063e1489191146104915761018b565b80638da5cb5b1461036f57806395a1399914610399578063976b0a77146103c1578063a6d1ec5d146103e9578063b499c44114610411578063b7ab4db5146104275761018b565b80632a73a3fd1161013d578063715018a611610117578063715018a6146102db57806371cd7ec4146102f157806376845b891461031b5780637985fd51146103455761018b565b80632a73a3fd1461027357806335aa2e44146102895780633ccfd60b146102c55761018b565b8063021fc1541461018f578063085d4883146101b9578063109e94cf146101e35780631fe982811461020d57806323637c8614610223578063290b43fe1461024b5761018b565b3661018b57005b5f80fd5b34801561019a575f80fd5b506101a361055d565b6040516101b09190611ffe565b60405180910390f35b3480156101c4575f80fd5b506101cd610585565b6040516101da9190611ffe565b60405180910390f35b3480156101ee575f80fd5b506101f76105ad565b6040516102049190611ffe565b60405180910390f35b348015610218575f80fd5b506102216105d5565b005b34801561022e575f80fd5b5061024960048036038101906102449190612069565b6106ea565b005b348015610256575f80fd5b50610271600480360381019061026c91906120be565b610848565b005b34801561027e575f80fd5b50610287610893565b005b348015610294575f80fd5b506102af60048036038101906102aa919061211c565b6109a4565b6040516102bc91906121d1565b60405180910390f35b3480156102d0575f80fd5b506102d9610a4a565b005b3480156102e6575f80fd5b506102ef610f18565b005b3480156102fc575f80fd5b50610305610f53565b6040516103129190612200565b60405180910390f35b348015610326575f80fd5b5061032f610f77565b60405161033c9190612200565b60405180910390f35b348015610350575f80fd5b50610359610f7d565b6040516103669190612200565b60405180910390f35b34801561037a575f80fd5b50610383610f86565b6040516103909190611ffe565b60405180910390f35b3480156103a4575f80fd5b506103bf60048036038101906103ba919061211c565b610fbb565b005b3480156103cc575f80fd5b506103e760048036038101906103e29190612219565b61108e565b005b3480156103f4575f80fd5b5061040f600480360381019061040a91906123a9565b61124a565b005b34801561041c575f80fd5b50610425611383565b005b348015610432575f80fd5b5061043b611457565b60405161044891906124f3565b60405180910390f35b34801561045c575f80fd5b5061046561152b565b6040516104729190612522565b60405180910390f35b348015610486575f80fd5b5061048f611531565b005b34801561049c575f80fd5b506104a56115ca565b6040516104b29190612522565b60405180910390f35b3480156104c6575f80fd5b506104cf6115eb565b6040516104dc9190612522565b60405180910390f35b3480156104f0575f80fd5b5061050b600480360381019061050691906120be565b611606565b005b348015610518575f80fd5b50610533600480360381019061052e919061211c565b611612565b005b348015610540575f80fd5b5061055b60048036038101906105569190612069565b6117f7565b005b5f60055f9054906101000a900473ffffffffffffffffffffffffffffffffffffffff16905090565b5f60045f9054906101000a900473ffffffffffffffffffffffffffffffffffffffff16905090565b5f60035f9054906101000a900473ffffffffffffffffffffffffffffffffffffffff16905090565b6105dd6118f2565b73ffffffffffffffffffffffffffffffffffffffff166105fb6105ad565b73ffffffffffffffffffffffffffffffffffffffff1614610651576040517f08c379a0000000000000000000000000000000000000000000000000000000008152600401610648906125bb565b60405180910390fd5b6106715f8054906101000a90046bffffffffffffffffffffffff166118f9565b5f8054906101000a90046bffffffffffffffffffffffff16600560146101000a8154816bffffffffffffffffffffffff02191690836bffffffffffffffffffffffff1602179055505f805f6101000a8154816bffffffffffffffffffffffff02191690836bffffffffffffffffffffffff160217905550565b6106f2611976565b6106fb816118f9565b5f4790505f6127106bffffffffffffffffffffffff16836bffffffffffffffffffffffff168361072b9190612606565b6107359190612674565b90505f8111610779576040517f08c379a0000000000000000000000000000000000000000000000000000000008152600401610770906126ee565b60405180910390fd5b5f60045f9054906101000a900473ffffffffffffffffffffffffffffffffffffffff1673ffffffffffffffffffffffffffffffffffffffff16826040516107bf90612739565b5f6040518083038185875af1925050503d805f81146107f9576040519150601f19603f3d011682016040523d82523d5f602084013e6107fe565b606091505b5050905080610842576040517f08c379a000000000000000000000000000000000000000000000000000000000815260040161083990612797565b60405180910390fd5b50505050565b610850611976565b8060055f6101000a81548173ffffffffffffffffffffffffffffffffffffffff021916908373ffffffffffffffffffffffffffffffffffffffff16021790555050565b61089b6118f2565b73ffffffffffffffffffffffffffffffffffffffff166108b9610f86565b73ffffffffffffffffffffffffffffffffffffffff16148061091457506108de6118f2565b73ffffffffffffffffffffffffffffffffffffffff166108fc610585565b73ffffffffffffffffffffffffffffffffffffffff16145b610953576040517f08c379a000000000000000000000000000000000000000000000000000000000815260040161094a90612825565b60405180910390fd5b6109735f8054906101000a90046bffffffffffffffffffffffff166118f9565b5f805f6101000a8154816bffffffffffffffffffffffff02191690836bffffffffffffffffffffffff160217905550565b600281815481106109b3575f80fd5b905f5260205f20015f9150905080546109cb90612870565b80601f01602080910402602001604051908101604052809291908181526020018280546109f790612870565b8015610a425780601f10610a1957610100808354040283529160200191610a42565b820191905f5260205f20905b815481529060010190602001808311610a2557829003601f168201915b505050505081565b610a526118f2565b73ffffffffffffffffffffffffffffffffffffffff16610a70610f86565b73ffffffffffffffffffffffffffffffffffffffff161480610acb5750610a956118f2565b73ffffffffffffffffffffffffffffffffffffffff16610ab36105ad565b73ffffffffffffffffffffffffffffffffffffffff16145b80610b0f5750610ad96118f2565b73ffffffffffffffffffffffffffffffffffffffff16610af7610585565b73ffffffffffffffffffffffffffffffffffffffff16145b610b4e576040517f08c379a0000000000000000000000000000000000000000000000000000000008152600401610b4590612910565b60405180910390fd5b5f805f9054906101000a90046bffffffffffffffffffffffff166bffffffffffffffffffffffff16148015610b8457505f600154145b610bc3576040517f08c379a0000000000000000000000000000000000000000000000000000000008152600401610bba90612978565b60405180910390fd5b5f4790505f80600654831115610c36576127106bffffffffffffffffffffffff16600560149054906101000a90046bffffffffffffffffffffffff166bffffffffffffffffffffffff1660065485610c1b9190612996565b610c259190612606565b610c2f9190612674565b9150610c88565b6127106bffffffffffffffffffffffff16600560149054906101000a90046bffffffffffffffffffffffff166bffffffffffffffffffffffff1684610c7b9190612606565b610c859190612674565b91505b5f8211610cca576040517f08c379a0000000000000000000000000000000000000000000000000000000008152600401610cc190612a39565b60405180910390fd5b8183610cd69190612996565b90505f60045f9054906101000a900473ffffffffffffffffffffffffffffffffffffffff1673ffffffffffffffffffffffffffffffffffffffff1683604051610d1e90612739565b5f6040518083038185875af1925050503d805f8114610d58576040519150601f19603f3d011682016040523d82523d5f602084013e610d5d565b606091505b505090505f60035f9054906101000a900473ffffffffffffffffffffffffffffffffffffffff1673ffffffffffffffffffffffffffffffffffffffff1683604051610da790612739565b5f6040518083038185875af1925050503d805f8114610de1576040519150601f19603f3d011682016040523d82523d5f602084013e610de6565b606091505b5050905060035f9054906101000a900473ffffffffffffffffffffffffffffffffffffffff1673ffffffffffffffffffffffffffffffffffffffff167f6177f4110771217c72937d51f3a73915f2c714a6b98507e17eea7a186136a24a84604051610e519190612200565b60405180910390a260045f9054906101000a900473ffffffffffffffffffffffffffffffffffffffff1673ffffffffffffffffffffffffffffffffffffffff167f33bfef697c184a8d0d52554d2ca3bff3bc8628785269331e6b53bb633ba1187c85604051610ec09190612200565b60405180910390a2808015610ed25750815b610f11576040517f08c379a0000000000000000000000000000000000000000000000000000000008152600401610f0890612797565b60405180910390fd5b5050505050565b6040517f08c379a0000000000000000000000000000000000000000000000000000000008152600401610f4a90612ac7565b60405180910390fd5b7fffffffffffffffffffffffffffffffffffffffffffffffffffffffffffffffff81565b60015481565b5f600654905090565b5f80610f906119fd565b9050805f015f9054906101000a900473ffffffffffffffffffffffffffffffffffffffff1691505090565b610fc36118f2565b73ffffffffffffffffffffffffffffffffffffffff16610fe1610f86565b73ffffffffffffffffffffffffffffffffffffffff16148061103c57506110066118f2565b73ffffffffffffffffffffffffffffffffffffffff16611024610585565b73ffffffffffffffffffffffffffffffffffffffff16145b61107b576040517f08c379a000000000000000000000000000000000000000000000000000000000815260040161107290612825565b60405180910390fd5b61108481611a24565b8060018190555050565b5f611097611a69565b90505f815f0160089054906101000a900460ff161590505f825f015f9054906101000a900467ffffffffffffffff1690505f808267ffffffffffffffff161480156110df5750825b90505f60018367ffffffffffffffff1614801561111257505f3073ffffffffffffffffffffffffffffffffffffffff163b145b905081158015611120575080155b15611157576040517ff92ee8a900000000000000000000000000000000000000000000000000000000815260040160405180910390fd5b6001855f015f6101000a81548167ffffffffffffffff021916908367ffffffffffffffff16021790555083156111a4576001855f0160086101000a81548160ff0219169083151502179055505b6111ad89611a7c565b6111b688611b2d565b6111d373d60ca38884509c7b296da19a44c71c61d9e78eff611bde565b6111dc86611bf2565b6111e587611ca3565b831561123f575f855f0160086101000a81548160ff0219169083151502179055507fc7f505b2f371ae2175ee4913f4499e1f2633a7b5936321eed1cdaeb6115181d260016040516112369190612b3a565b60405180910390a15b505050505050505050565b6112526118f2565b73ffffffffffffffffffffffffffffffffffffffff1661127061055d565b73ffffffffffffffffffffffffffffffffffffffff1614806112cb57506112956118f2565b73ffffffffffffffffffffffffffffffffffffffff166112b3610f86565b73ffffffffffffffffffffffffffffffffffffffff16145b8061130f57506112d96118f2565b73ffffffffffffffffffffffffffffffffffffffff166112f7610585565b73ffffffffffffffffffffffffffffffffffffffff16145b61134e576040517f08c379a000000000000000000000000000000000000000000000000000000000815260040161134590612bc3565b60405180910390fd5b600281908060018154018082558091505060019003905f5260205f20015f90919091909150908161137f9190612d75565b5050565b61138b6118f2565b73ffffffffffffffffffffffffffffffffffffffff166113a9610f86565b73ffffffffffffffffffffffffffffffffffffffff16148061140457506113ce6118f2565b73ffffffffffffffffffffffffffffffffffffffff166113ec610585565b73ffffffffffffffffffffffffffffffffffffffff16145b611443576040517f08c379a000000000000000000000000000000000000000000000000000000000815260040161143a90612825565b60405180910390fd5b61144e600154611a24565b5f600181905550565b60606002805480602002602001604051908101604052809291908181526020015f905b82821015611522578382905f5260205f2001805461149790612870565b80601f01602080910402602001604051908101604052809291908181526020018280546114c390612870565b801561150e5780601f106114e55761010080835404028352916020019161150e565b820191905f5260205f20905b8154815290600101906020018083116114f157829003601f168201915b50505050508152602001906001019061147a565b50505050905090565b61271081565b6115396118f2565b73ffffffffffffffffffffffffffffffffffffffff166115576105ad565b73ffffffffffffffffffffffffffffffffffffffff16146115ad576040517f08c379a00000000000000000000000000000000000000000000000000000000081526004016115a4906125bb565b60405180910390fd5b6115b8600154611a24565b6001546006819055505f600181905550565b5f600560149054906101000a90046bffffffffffffffffffffffff16905090565b5f8054906101000a90046bffffffffffffffffffffffff1681565b61160f81611d07565b50565b61161a6118f2565b73ffffffffffffffffffffffffffffffffffffffff1661163861055d565b73ffffffffffffffffffffffffffffffffffffffff161480611693575061165d6118f2565b73ffffffffffffffffffffffffffffffffffffffff1661167b610f86565b73ffffffffffffffffffffffffffffffffffffffff16145b806116d757506116a16118f2565b73ffffffffffffffffffffffffffffffffffffffff166116bf610585565b73ffffffffffffffffffffffffffffffffffffffff16145b611716576040517f08c379a000000000000000000000000000000000000000000000000000000000815260040161170d90612bc3565b60405180910390fd5b5f6002805490509050808210611761576040517f08c379a000000000000000000000000000000000000000000000000000000000815260040161175890612e8e565b60405180910390fd5b60018161176e9190612996565b82146117c65760026001826117839190612996565b8154811061179457611793612eac565b5b905f5260205f2001600283815481106117b0576117af612eac565b5b905f5260205f200190816117c49190612f00565b505b60028054806117d8576117d7612fe5565b5b600190038181905f5260205f20015f6117f19190611f67565b90555050565b6117ff6118f2565b73ffffffffffffffffffffffffffffffffffffffff1661181d610f86565b73ffffffffffffffffffffffffffffffffffffffff16148061187857506118426118f2565b73ffffffffffffffffffffffffffffffffffffffff16611860610585565b73ffffffffffffffffffffffffffffffffffffffff16145b6118b7576040517f08c379a00000000000000000000000000000000000000000000000000000000081526004016118ae90612825565b60405180910390fd5b6118c0816118f9565b805f806101000a8154816bffffffffffffffffffffffff02191690836bffffffffffffffffffffffff16021790555050565b5f33905090565b5f816bffffffffffffffffffffffff1611801561193457506127106bffffffffffffffffffffffff16816bffffffffffffffffffffffff1611155b611973576040517f08c379a000000000000000000000000000000000000000000000000000000000815260040161196a90613082565b60405180910390fd5b50565b61197e6118f2565b73ffffffffffffffffffffffffffffffffffffffff1661199c610f86565b73ffffffffffffffffffffffffffffffffffffffff16146119fb576119bf6118f2565b6040517f118cdaa70000000000000000000000000000000000000000000000000000000081526004016119f29190611ffe565b60405180910390fd5b565b5f7f9016d09d72d40fdae2fd8ceac6b6234c7706214fd39c1cd1e609a0528c199300905090565b5f8111611a66576040517f08c379a0000000000000000000000000000000000000000000000000000000008152600401611a5d90613110565b60405180910390fd5b50565b5f80611a73611d8b565b90508091505090565b5f73ffffffffffffffffffffffffffffffffffffffff168173ffffffffffffffffffffffffffffffffffffffff1603611aea576040517f08c379a0000000000000000000000000000000000000000000000000000000008152600401611ae19061319e565b60405180910390fd5b8060035f6101000a81548173ffffffffffffffffffffffffffffffffffffffff021916908373ffffffffffffffffffffffffffffffffffffffff16021790555050565b5f73ffffffffffffffffffffffffffffffffffffffff168173ffffffffffffffffffffffffffffffffffffffff1603611b9b576040517f08c379a0000000000000000000000000000000000000000000000000000000008152600401611b929061322c565b60405180910390fd5b8060045f6101000a81548173ffffffffffffffffffffffffffffffffffffffff021916908373ffffffffffffffffffffffffffffffffffffffff16021790555050565b611be6611db4565b611bef81611df4565b50565b5f73ffffffffffffffffffffffffffffffffffffffff168173ffffffffffffffffffffffffffffffffffffffff1603611c60576040517f08c379a0000000000000000000000000000000000000000000000000000000008152600401611c57906132ba565b60405180910390fd5b8060055f6101000a81548173ffffffffffffffffffffffffffffffffffffffff021916908373ffffffffffffffffffffffffffffffffffffffff16021790555050565b611cac816118f9565b80600560146101000a8154816bffffffffffffffffffffffff02191690836bffffffffffffffffffffffff1602179055507fffffffffffffffffffffffffffffffffffffffffffffffffffffffffffffffff60068190555050565b611d0f611976565b5f73ffffffffffffffffffffffffffffffffffffffff168173ffffffffffffffffffffffffffffffffffffffff1603611d7f575f6040517f1e4fbdf7000000000000000000000000000000000000000000000000000000008152600401611d769190611ffe565b60405180910390fd5b611d8881611e78565b50565b5f7ff0c57e16840df040f15088dc2f81fe391c3923bec73e23a9662efc9c229c6a005f1b905090565b611dbc611f49565b611df2576040517fd7e6bcf800000000000000000000000000000000000000000000000000000000815260040160405180910390fd5b565b611dfc611db4565b5f73ffffffffffffffffffffffffffffffffffffffff168173ffffffffffffffffffffffffffffffffffffffff1603611e6c575f6040517f1e4fbdf7000000000000000000000000000000000000000000000000000000008152600401611e639190611ffe565b60405180910390fd5b611e7581611e78565b50565b5f611e816119fd565b90505f815f015f9054906101000a900473ffffffffffffffffffffffffffffffffffffffff16905082825f015f6101000a81548173ffffffffffffffffffffffffffffffffffffffff021916908373ffffffffffffffffffffffffffffffffffffffff1602179055508273ffffffffffffffffffffffffffffffffffffffff168173ffffffffffffffffffffffffffffffffffffffff167f8be0079c531659141344cd1fd0a4f28419497f9722a3daafe3b4186f6b6457e060405160405180910390a3505050565b5f611f52611a69565b5f0160089054906101000a900460ff16905090565b508054611f7390612870565b5f825580601f10611f845750611fa1565b601f0160209004905f5260205f2090810190611fa09190611fa4565b5b50565b5b80821115611fbb575f815f905550600101611fa5565b5090565b5f73ffffffffffffffffffffffffffffffffffffffff82169050919050565b5f611fe882611fbf565b9050919050565b611ff881611fde565b82525050565b5f6020820190506120115f830184611fef565b92915050565b5f604051905090565b5f80fd5b5f80fd5b5f6bffffffffffffffffffffffff82169050919050565b61204881612028565b8114612052575f80fd5b50565b5f813590506120638161203f565b92915050565b5f6020828403121561207e5761207d612020565b5b5f61208b84828501612055565b91505092915050565b61209d81611fde565b81146120a7575f80fd5b50565b5f813590506120b881612094565b92915050565b5f602082840312156120d3576120d2612020565b5b5f6120e0848285016120aa565b91505092915050565b5f819050919050565b6120fb816120e9565b8114612105575f80fd5b50565b5f81359050612116816120f2565b92915050565b5f6020828403121561213157612130612020565b5b5f61213e84828501612108565b91505092915050565b5f81519050919050565b5f82825260208201905092915050565b5f5b8381101561217e578082015181840152602081019050612163565b5f8484015250505050565b5f601f19601f8301169050919050565b5f6121a382612147565b6121ad8185612151565b93506121bd818560208601612161565b6121c681612189565b840191505092915050565b5f6020820190508181035f8301526121e98184612199565b905092915050565b6121fa816120e9565b82525050565b5f6020820190506122135f8301846121f1565b92915050565b5f805f806080858703121561223157612230612020565b5b5f61223e878288016120aa565b945050602061224f878288016120aa565b935050604061226087828801612055565b9250506060612271878288016120aa565b91505092959194509250565b5f80fd5b5f80fd5b7f4e487b71000000000000000000000000000000000000000000000000000000005f52604160045260245ffd5b6122bb82612189565b810181811067ffffffffffffffff821117156122da576122d9612285565b5b80604052505050565b5f6122ec612017565b90506122f882826122b2565b919050565b5f67ffffffffffffffff82111561231757612316612285565b5b61232082612189565b9050602081019050919050565b828183375f83830152505050565b5f61234d612348846122fd565b6122e3565b90508281526020810184848401111561236957612368612281565b5b61237484828561232d565b509392505050565b5f82601f8301126123905761238f61227d565b5b81356123a084826020860161233b565b91505092915050565b5f602082840312156123be576123bd612020565b5b5f82013567ffffffffffffffff8111156123db576123da612024565b5b6123e78482850161237c565b91505092915050565b5f81519050919050565b5f82825260208201905092915050565b5f819050602082019050919050565b5f82825260208201905092915050565b5f61243382612147565b61243d8185612419565b935061244d818560208601612161565b61245681612189565b840191505092915050565b5f61246c8383612429565b905092915050565b5f602082019050919050565b5f61248a826123f0565b61249481856123fa565b9350836020820285016124a68561240a565b805f5b858110156124e157848403895281516124c28582612461565b94506124cd83612474565b925060208a019950506001810190506124a9565b50829750879550505050505092915050565b5f6020820190508181035f83015261250b8184612480565b905092915050565b61251c81612028565b82525050565b5f6020820190506125355f830184612513565b92915050565b5f82825260208201905092915050565b7f52657761726452656365697665723a2063616c6c6572206973206e6f742074685f8201527f6520636c69656e74000000000000000000000000000000000000000000000000602082015250565b5f6125a560288361253b565b91506125b08261254b565b604082019050919050565b5f6020820190508181035f8301526125d281612599565b9050919050565b7f4e487b71000000000000000000000000000000000000000000000000000000005f52601160045260245ffd5b5f612610826120e9565b915061261b836120e9565b9250828202612629816120e9565b915082820484148315176126405761263f6125d9565b5b5092915050565b7f4e487b71000000000000000000000000000000000000000000000000000000005f52601260045260245ffd5b5f61267e826120e9565b9150612689836120e9565b92508261269957612698612647565b5b828204905092915050565b7f52657761726452656365697665723a20616d6f756e7420746f6f206c6f7700005f82015250565b5f6126d8601e8361253b565b91506126e3826126a4565b602082019050919050565b5f6020820190508181035f830152612705816126cc565b9050919050565b5f81905092915050565b50565b5f6127245f8361270c565b915061272f82612716565b5f82019050919050565b5f61274382612719565b9150819050919050565b7f52657761726452656365697665723a207472616e73666572206661696c6564005f82015250565b5f612781601f8361253b565b915061278c8261274d565b602082019050919050565b5f6020820190508181035f8301526127ae81612775565b9050919050565b7f52657761726452656365697665723a2063616c6c6572206973206e6f742074685f8201527f65206f776e6572206f722070726f766964657200000000000000000000000000602082015250565b5f61280f60338361253b565b915061281a826127b5565b604082019050919050565b5f6020820190508181035f83015261283c81612803565b9050919050565b7f4e487b71000000000000000000000000000000000000000000000000000000005f52602260045260245ffd5b5f600282049050600182168061288757607f821691505b60208210810361289a57612899612843565b5b50919050565b7f52657761726452656365697665723a2063616c6c6572206973206e6f742074685f8201527f65206f776e65722c20636c69656e74206f722070726f76696465720000000000602082015250565b5f6128fa603b8361253b565b9150612905826128a0565b604082019050919050565b5f6020820190508181035f830152612927816128ee565b9050919050565b7f52657761726452656365697665723a2070656e64696e672073746174650000005f82015250565b5f612962601d8361253b565b915061296d8261292e565b602082019050919050565b5f6020820190508181035f83015261298f81612956565b9050919050565b5f6129a0826120e9565b91506129ab836120e9565b92508282039050818111156129c3576129c26125d9565b5b92915050565b7f52657761726452656365697665723a20636f6d6d697373696f6e20746f6f206c5f8201527f6f77000000000000000000000000000000000000000000000000000000000000602082015250565b5f612a2360228361253b565b9150612a2e826129c9565b604082019050919050565b5f6020820190508181035f830152612a5081612a17565b9050919050565b7f52657761726452656365697665723a2072656e6f756e63654f776e65727368695f8201527f702069732064697361626c656400000000000000000000000000000000000000602082015250565b5f612ab1602d8361253b565b9150612abc82612a57565b604082019050919050565b5f6020820190508181035f830152612ade81612aa5565b9050919050565b5f819050919050565b5f67ffffffffffffffff82169050919050565b5f819050919050565b5f612b24612b1f612b1a84612ae5565b612b01565b612aee565b9050919050565b612b3481612b0a565b82525050565b5f602082019050612b4d5f830184612b2b565b92915050565b7f52657761726452656365697665723a2063616c6c6572206973206e6f742073745f8201527f616b65506164206f722070726f7669646572206f72206f776e65720000000000602082015250565b5f612bad603b8361253b565b9150612bb882612b53565b604082019050919050565b5f6020820190508181035f830152612bda81612ba1565b9050919050565b5f819050815f5260205f209050919050565b5f6020601f8301049050919050565b5f82821b905092915050565b5f60088302612c3d7fffffffffffffffffffffffffffffffffffffffffffffffffffffffffffffffff82612c02565b612c478683612c02565b95508019841693508086168417925050509392505050565b5f612c79612c74612c6f846120e9565b612b01565b6120e9565b9050919050565b5f819050919050565b612c9283612c5f565b612ca6612c9e82612c80565b848454612c0e565b825550505050565b5f90565b612cba612cae565b612cc5818484612c89565b505050565b5b81811015612ce857612cdd5f82612cb2565b600181019050612ccb565b5050565b601f821115612d2d57612cfe81612be1565b612d0784612bf3565b81016020851015612d16578190505b612d2a612d2285612bf3565b830182612cca565b50505b505050565b5f82821c905092915050565b5f612d4d5f1984600802612d32565b1980831691505092915050565b5f612d658383612d3e565b9150826002028217905092915050565b612d7e82612147565b67ffffffffffffffff811115612d9757612d96612285565b5b612da18254612870565b612dac828285612cec565b5f60209050601f831160018114612ddd575f8415612dcb578287015190505b612dd58582612d5a565b865550612e3c565b601f198416612deb86612be1565b5f5b82811015612e1257848901518255600182019150602085019450602081019050612ded565b86831015612e2f5784890151612e2b601f891682612d3e565b8355505b6001600288020188555050505b505050505050565b7f5265776172645265636569766572203a20696e76616c696420696e64657800005f82015250565b5f612e78601e8361253b565b9150612e8382612e44565b602082019050919050565b5f6020820190508181035f830152612ea581612e6c565b9050919050565b7f4e487b71000000000000000000000000000000000000000000000000000000005f52603260045260245ffd5b5f81549050612ee781612870565b9050919050565b5f819050815f5260205f209050919050565b818103612f0e575050612fe3565b612f1782612ed9565b67ffffffffffffffff811115612f3057612f2f612285565b5b612f3a8254612870565b612f45828285612cec565b5f601f831160018114612f72575f8415612f60578287015490505b612f6a8582612d5a565b865550612fdc565b601f198416612f8087612eee565b9650612f8b86612be1565b5f5b82811015612fb257848901548255600182019150600185019450602081019050612f8d565b86831015612fcf5784890154612fcb601f891682612d3e565b8355505b6001600288020188555050505b5050505050505b565b7f4e487b71000000000000000000000000000000000000000000000000000000005f52603160045260245ffd5b7f52657761726452656365697665723a20696e76616c69642070657263656e74615f8201527f6765000000000000000000000000000000000000000000000000000000000000602082015250565b5f61306c60228361253b565b915061307782613012565b604082019050919050565b5f6020820190508181035f83015261309981613060565b9050919050565b7f52657761726452656365697665723a20696e76616c69642077697468647261775f8201527f616c207468726573686f6c640000000000000000000000000000000000000000602082015250565b5f6130fa602c8361253b565b9150613105826130a0565b604082019050919050565b5f6020820190508181035f830152613127816130ee565b9050919050565b7f52657761726452656365697665723a20636c69656e7420697320746865207a655f8201527f726f206164647265737300000000000000000000000000000000000000000000602082015250565b5f613188602a8361253b565b91506131938261312e565b604082019050919050565b5f6020820190508181035f8301526131b58161317c565b9050919050565b7f52657761726452656365697665723a2070726f766964657220697320746865205f8201527f7a65726f20616464726573730000000000000000000000000000000000000000602082015250565b5f613216602c8361253b565b9150613221826131bc565b604082019050919050565b5f6020820190508181035f8301526132438161320a565b9050919050565b7f52657761726452656365697665723a207374616b6550616420697320746865205f8201527f7a65726f20616464726573730000000000000000000000000000000000000000602082015250565b5f6132a4602c8361253b565b91506132af8261324a565b604082019050919050565b5f6020820190508181035f8301526132d181613298565b905091905056fea264697066735822122083c1156313d7ac0f9bcfa49fb77667c742719efcee55b6d0af523fb7e3b14aef64736f6c63430008160033","linkReferences":{}},"methodIdentifiers":{"BASIS_PTS()":"bf56f05e","INIT_WITHDRAWAL_THRESHOLD()":"71cd7ec4","acceptNewCommission()":"1fe98281","acceptNewWithdrawalThreshold()":"c9768656","addValidator(bytes)":"a6d1ec5d","cancelNewCommission()":"2a73a3fd","cancelNewWithdrawalThreshold()":"b499c441","changeStakePad(address)":"290b43fe","client()":"109e94cf","commission()":"e1489191","getValidators()":"b7ab4db5","initialize(address,address,uint96,address)":"976b0a77","owner()":"8da5cb5b","pendingCommission()":"f01daef1","pendingWithdrawalThreshold()":"76845b89","percentageWithdraw(uint96)":"23637c86","proposeNewCommission(uint96)":"fd2753b9","proposeNewWithdrawalThreshold(uint256)":"95a13999","provider()":"085d4883","removeValidator(uint256)":"f94e1867","renounceOwnership()":"715018a6","stakePad()":"021fc154","transferOwnership(address)":"f2fde38b","validators(uint256)":"35aa2e44","withdraw()":"3ccfd60b","withdrawalThreshold()":"7985fd51"},"id":42}