{"abi":[{"type":"receive","stateMutability":"payable"},{"type":"function","name":"BASIS_PTS","inputs":[],"outputs":[{"name":"","type":"uint96","internalType":"uint96"}],"stateMutability":"view"},{"type":"function","name":"INIT_WITHDRAWAL_THRESHOLD","inputs":[],"outputs":[{"name":"","type":"uint256","internalType":"uint256"}],"stateMutability":"view"},{"type":"function","name":"acceptNewComission","inputs":[],"outputs":[],"stateMutability":"nonpayable"},{"type":"function","name":"acceptNewWithdrawalThreshold","inputs":[],"outputs":[],"stateMutability":"nonpayable"},{"type":"function","name":"addValidator","inputs":[{"name":"pubkey","type":"bytes","internalType":"bytes"}],"outputs":[],"stateMutability":"nonpayable"},{"type":"function","name":"cancelNewComission","inputs":[],"outputs":[],"stateMutability":"nonpayable"},{"type":"function","name":"cancelNewWithdrawalThreshold","inputs":[],"outputs":[],"stateMutability":"nonpayable"},{"type":"function","name":"changeStakePad","inputs":[{"name":"newStakePad","type":"address","internalType":"address"}],"outputs":[],"stateMutability":"nonpayable"},{"type":"function","name":"client","inputs":[],"outputs":[{"name":"","type":"address","internalType":"address"}],"stateMutability":"view"},{"type":"function","name":"comission","inputs":[],"outputs":[{"name":"","type":"uint96","internalType":"uint96"}],"stateMutability":"view"},{"type":"function","name":"getValidators","inputs":[],"outputs":[{"name":"","type":"bytes[]","internalType":"bytes[]"}],"stateMutability":"view"},{"type":"function","name":"initialize","inputs":[{"name":"newClient","type":"address","internalType":"address"},{"name":"newProvider","type":"address","internalType":"address"},{"name":"newComission","type":"uint96","internalType":"uint96"},{"name":"newStakePad","type":"address","internalType":"address"}],"outputs":[],"stateMutability":"nonpayable"},{"type":"function","name":"owner","inputs":[],"outputs":[{"name":"","type":"address","internalType":"address"}],"stateMutability":"view"},{"type":"function","name":"pendingComission","inputs":[],"outputs":[{"name":"","type":"uint96","internalType":"uint96"}],"stateMutability":"view"},{"type":"function","name":"pendingWithdrawalThreshold","inputs":[],"outputs":[{"name":"","type":"uint256","internalType":"uint256"}],"stateMutability":"view"},{"type":"function","name":"percentageWithdraw","inputs":[{"name":"percentage","type":"uint96","internalType":"uint96"}],"outputs":[],"stateMutability":"nonpayable"},{"type":"function","name":"proposeNewComission","inputs":[{"name":"newComission","type":"uint96","internalType":"uint96"}],"outputs":[],"stateMutability":"nonpayable"},{"type":"function","name":"proposeNewWithdrawalThreshold","inputs":[{"name":"newWithdrawalThreshold","type":"uint256","internalType":"uint256"}],"outputs":[],"stateMutability":"nonpayable"},{"type":"function","name":"provider","inputs":[],"outputs":[{"name":"","type":"address","internalType":"address"}],"stateMutability":"view"},{"type":"function","name":"removeValidator","inputs":[{"name":"index","type":"uint256","internalType":"uint256"}],"outputs":[],"stateMutability":"nonpayable"},{"type":"function","name":"renounceOwnership","inputs":[],"outputs":[],"stateMutability":"pure"},{"type":"function","name":"stakePad","inputs":[],"outputs":[{"name":"","type":"address","internalType":"address"}],"stateMutability":"view"},{"type":"function","name":"transferOwnership","inputs":[{"name":"newOwner","type":"address","internalType":"address"}],"outputs":[],"stateMutability":"nonpayable"},{"type":"function","name":"validators","inputs":[{"name":"","type":"uint256","internalType":"uint256"}],"outputs":[{"name":"","type":"bytes","internalType":"bytes"}],"stateMutability":"view"},{"type":"function","name":"withdraw","inputs":[],"outputs":[],"stateMutability":"nonpayable"},{"type":"function","name":"withdrawalThreshold","inputs":[],"outputs":[{"name":"","type":"uint256","internalType":"uint256"}],"stateMutability":"view"},{"type":"event","name":"ComissionSent","inputs":[{"name":"","type":"address","indexed":true,"internalType":"address"},{"name":"","type":"uint256","indexed":false,"internalType":"uint256"}],"anonymous":false},{"type":"event","name":"Initialized","inputs":[{"name":"version","type":"uint64","indexed":false,"internalType":"uint64"}],"anonymous":false},{"type":"event","name":"OwnershipTransferred","inputs":[{"name":"previousOwner","type":"address","indexed":true,"internalType":"address"},{"name":"newOwner","type":"address","indexed":true,"internalType":"address"}],"anonymous":false},{"type":"event","name":"RewardSent","inputs":[{"name":"","type":"address","indexed":true,"internalType":"address"},{"name":"","type":"uint256","indexed":false,"internalType":"uint256"}],"anonymous":false},{"type":"error","name":"InvalidInitialization","inputs":[]},{"type":"error","name":"NotInitializing","inputs":[]},{"type":"error","name":"OwnableInvalidOwner","inputs":[{"name":"owner","type":"address","internalType":"address"}]},{"type":"error","name":"OwnableUnauthorizedAccount","inputs":[{"name":"account","type":"address","internalType":"address"}]},{"type":"error","name":"ReentrancyGuardReentrantCall","inputs":[]}],"bytecode":{"object":"0x608060405234801561000f575f80fd5b506133d58061001d5f395ff3fe608060405260043610610184575f3560e01c80638da5cb5b116100d0578063bf56f05e11610089578063da2692aa11610063578063da2692aa146104cd578063ee73b4f1146104e3578063f2fde38b1461050d578063f94e1867146105355761018b565b8063bf56f05e14610477578063bffe0919146104a1578063c9768656146104b75761018b565b80638da5cb5b1461039557806395a13999146103bf578063976b0a77146103e7578063a6d1ec5d1461040f578063b499c44114610437578063b7ab4db51461044d5761018b565b806335aa2e441161013d578063715018a611610117578063715018a61461030157806371cd7ec41461031757806376845b89146103415780637985fd511461036b5761018b565b806335aa2e44146102855780633a4b4532146102c15780633ccfd60b146102eb5761018b565b8063021fc1541461018f578063085d4883146101b9578063109e94cf146101e357806311409a541461020d57806323637c8614610235578063290b43fe1461025d5761018b565b3661018b57005b5f80fd5b34801561019a575f80fd5b506101a361055d565b6040516101b091906120c5565b60405180910390f35b3480156101c4575f80fd5b506101cd610585565b6040516101da91906120c5565b60405180910390f35b3480156101ee575f80fd5b506101f76105ad565b60405161020491906120c5565b60405180910390f35b348015610218575f80fd5b50610233600480360381019061022e9190612130565b6105d5565b005b348015610240575f80fd5b5061025b60048036038101906102569190612130565b6106d0565b005b348015610268575f80fd5b50610283600480360381019061027e9190612185565b61082e565b005b348015610290575f80fd5b506102ab60048036038101906102a691906121e3565b610879565b6040516102b89190612298565b60405180910390f35b3480156102cc575f80fd5b506102d561091f565b6040516102e291906122c7565b60405180910390f35b3480156102f6575f80fd5b506102ff610940565b005b34801561030c575f80fd5b50610315610e1e565b005b348015610322575f80fd5b5061032b610e59565b60405161033891906122ef565b60405180910390f35b34801561034c575f80fd5b50610355610e7d565b60405161036291906122ef565b60405180910390f35b348015610376575f80fd5b5061037f610e83565b60405161038c91906122ef565b60405180910390f35b3480156103a0575f80fd5b506103a9610e8c565b6040516103b691906120c5565b60405180910390f35b3480156103ca575f80fd5b506103e560048036038101906103e091906121e3565b610ec1565b005b3480156103f2575f80fd5b5061040d60048036038101906104089190612308565b610f94565b005b34801561041a575f80fd5b5061043560048036038101906104309190612498565b611144565b005b348015610442575f80fd5b5061044b61127d565b005b348015610458575f80fd5b50610461611351565b60405161046e91906125e2565b60405180910390f35b348015610482575f80fd5b5061048b611425565b60405161049891906122c7565b60405180910390f35b3480156104ac575f80fd5b506104b561142b565b005b3480156104c2575f80fd5b506104cb61153c565b005b3480156104d8575f80fd5b506104e16115d5565b005b3480156104ee575f80fd5b506104f76116ea565b60405161050491906122c7565b60405180910390f35b348015610518575f80fd5b50610533600480360381019061052e9190612185565b611705565b005b348015610540575f80fd5b5061055b600480360381019061055691906121e3565b611711565b005b5f60055f9054906101000a900473ffffffffffffffffffffffffffffffffffffffff16905090565b5f60045f9054906101000a900473ffffffffffffffffffffffffffffffffffffffff16905090565b5f60035f9054906101000a900473ffffffffffffffffffffffffffffffffffffffff16905090565b6105dd6118f6565b73ffffffffffffffffffffffffffffffffffffffff166105fb610e8c565b73ffffffffffffffffffffffffffffffffffffffff16148061065657506106206118f6565b73ffffffffffffffffffffffffffffffffffffffff1661063e610585565b73ffffffffffffffffffffffffffffffffffffffff16145b610695576040517f08c379a000000000000000000000000000000000000000000000000000000000815260040161068c90612682565b60405180910390fd5b61069e816118fd565b805f806101000a8154816bffffffffffffffffffffffff02191690836bffffffffffffffffffffffff16021790555050565b6106d861197a565b6106e1816118fd565b5f4790505f6127106bffffffffffffffffffffffff16836bffffffffffffffffffffffff168361071191906126cd565b61071b919061273b565b90505f811161075f576040517f08c379a0000000000000000000000000000000000000000000000000000000008152600401610756906127b5565b60405180910390fd5b5f60045f9054906101000a900473ffffffffffffffffffffffffffffffffffffffff1673ffffffffffffffffffffffffffffffffffffffff16826040516107a590612800565b5f6040518083038185875af1925050503d805f81146107df576040519150601f19603f3d011682016040523d82523d5f602084013e6107e4565b606091505b5050905080610828576040517f08c379a000000000000000000000000000000000000000000000000000000000815260040161081f9061285e565b60405180910390fd5b50505050565b61083661197a565b8060055f6101000a81548173ffffffffffffffffffffffffffffffffffffffff021916908373ffffffffffffffffffffffffffffffffffffffff16021790555050565b60028181548110610888575f80fd5b905f5260205f20015f9150905080546108a0906128a9565b80601f01602080910402602001604051908101604052809291908181526020018280546108cc906128a9565b80156109175780601f106108ee57610100808354040283529160200191610917565b820191905f5260205f20905b8154815290600101906020018083116108fa57829003601f168201915b505050505081565b5f600560149054906101000a90046bffffffffffffffffffffffff16905090565b6109486118f6565b73ffffffffffffffffffffffffffffffffffffffff16610966610e8c565b73ffffffffffffffffffffffffffffffffffffffff1614806109c1575061098b6118f6565b73ffffffffffffffffffffffffffffffffffffffff166109a96105ad565b73ffffffffffffffffffffffffffffffffffffffff16145b80610a0557506109cf6118f6565b73ffffffffffffffffffffffffffffffffffffffff166109ed610585565b73ffffffffffffffffffffffffffffffffffffffff16145b610a44576040517f08c379a0000000000000000000000000000000000000000000000000000000008152600401610a3b90612949565b60405180910390fd5b5f805f9054906101000a90046bffffffffffffffffffffffff166bffffffffffffffffffffffff16148015610a7a57505f600154145b610ab9576040517f08c379a0000000000000000000000000000000000000000000000000000000008152600401610ab0906129b1565b60405180910390fd5b610ac1611a01565b5f4790505f80600654831115610b34576127106bffffffffffffffffffffffff16600560149054906101000a90046bffffffffffffffffffffffff166bffffffffffffffffffffffff1660065485610b1991906129cf565b610b2391906126cd565b610b2d919061273b565b9150610b86565b6127106bffffffffffffffffffffffff16600560149054906101000a90046bffffffffffffffffffffffff166bffffffffffffffffffffffff1684610b7991906126cd565b610b83919061273b565b91505b5f8211610bc8576040517f08c379a0000000000000000000000000000000000000000000000000000000008152600401610bbf90612a72565b60405180910390fd5b8183610bd491906129cf565b90505f60045f9054906101000a900473ffffffffffffffffffffffffffffffffffffffff1673ffffffffffffffffffffffffffffffffffffffff1683604051610c1c90612800565b5f6040518083038185875af1925050503d805f8114610c56576040519150601f19603f3d011682016040523d82523d5f602084013e610c5b565b606091505b505090505f60035f9054906101000a900473ffffffffffffffffffffffffffffffffffffffff1673ffffffffffffffffffffffffffffffffffffffff1683604051610ca590612800565b5f6040518083038185875af1925050503d805f8114610cdf576040519150601f19603f3d011682016040523d82523d5f602084013e610ce4565b606091505b5050905060035f9054906101000a900473ffffffffffffffffffffffffffffffffffffffff1673ffffffffffffffffffffffffffffffffffffffff167f6177f4110771217c72937d51f3a73915f2c714a6b98507e17eea7a186136a24a84604051610d4f91906122ef565b60405180910390a260045f9054906101000a900473ffffffffffffffffffffffffffffffffffffffff1673ffffffffffffffffffffffffffffffffffffffff167f503ee096074a711a56082bd42af81af21d178a92692bae4ba9112a1766f4cbd785604051610dbe91906122ef565b60405180910390a2808015610dd05750815b610e0f576040517f08c379a0000000000000000000000000000000000000000000000000000000008152600401610e069061285e565b60405180910390fd5b5050505050610e1c611a55565b565b6040517f08c379a0000000000000000000000000000000000000000000000000000000008152600401610e5090612b00565b60405180910390fd5b7fffffffffffffffffffffffffffffffffffffffffffffffffffffffffffffffff81565b60015481565b5f600654905090565b5f80610e96611a6c565b9050805f015f9054906101000a900473ffffffffffffffffffffffffffffffffffffffff1691505090565b610ec96118f6565b73ffffffffffffffffffffffffffffffffffffffff16610ee7610e8c565b73ffffffffffffffffffffffffffffffffffffffff161480610f425750610f0c6118f6565b73ffffffffffffffffffffffffffffffffffffffff16610f2a610585565b73ffffffffffffffffffffffffffffffffffffffff16145b610f81576040517f08c379a0000000000000000000000000000000000000000000000000000000008152600401610f7890612682565b60405180910390fd5b610f8a81611a93565b8060018190555050565b5f610f9d611ad8565b90505f815f0160089054906101000a900460ff161590505f825f015f9054906101000a900467ffffffffffffffff1690505f808267ffffffffffffffff16148015610fe55750825b90505f60018367ffffffffffffffff1614801561101857505f3073ffffffffffffffffffffffffffffffffffffffff163b145b905081158015611026575080155b1561105d576040517ff92ee8a900000000000000000000000000000000000000000000000000000000815260040160405180910390fd5b6001855f015f6101000a81548167ffffffffffffffff021916908367ffffffffffffffff16021790555083156110aa576001855f0160086101000a81548160ff0219169083151502179055505b6110b389611aeb565b6110bc88611b9c565b6110c533611c4d565b6110cd611c61565b6110d686611c73565b6110df87611d24565b8315611139575f855f0160086101000a81548160ff0219169083151502179055507fc7f505b2f371ae2175ee4913f4499e1f2633a7b5936321eed1cdaeb6115181d260016040516111309190612b73565b60405180910390a15b505050505050505050565b61114c6118f6565b73ffffffffffffffffffffffffffffffffffffffff1661116a61055d565b73ffffffffffffffffffffffffffffffffffffffff1614806111c5575061118f6118f6565b73ffffffffffffffffffffffffffffffffffffffff166111ad610e8c565b73ffffffffffffffffffffffffffffffffffffffff16145b8061120957506111d36118f6565b73ffffffffffffffffffffffffffffffffffffffff166111f1610585565b73ffffffffffffffffffffffffffffffffffffffff16145b611248576040517f08c379a000000000000000000000000000000000000000000000000000000000815260040161123f90612bfc565b60405180910390fd5b600281908060018154018082558091505060019003905f5260205f20015f9091909190915090816112799190612dae565b5050565b6112856118f6565b73ffffffffffffffffffffffffffffffffffffffff166112a3610e8c565b73ffffffffffffffffffffffffffffffffffffffff1614806112fe57506112c86118f6565b73ffffffffffffffffffffffffffffffffffffffff166112e6610585565b73ffffffffffffffffffffffffffffffffffffffff16145b61133d576040517f08c379a000000000000000000000000000000000000000000000000000000000815260040161133490612682565b60405180910390fd5b611348600154611a93565b5f600181905550565b60606002805480602002602001604051908101604052809291908181526020015f905b8282101561141c578382905f5260205f20018054611391906128a9565b80601f01602080910402602001604051908101604052809291908181526020018280546113bd906128a9565b80156114085780601f106113df57610100808354040283529160200191611408565b820191905f5260205f20905b8154815290600101906020018083116113eb57829003601f168201915b505050505081526020019060010190611374565b50505050905090565b61271081565b6114336118f6565b73ffffffffffffffffffffffffffffffffffffffff16611451610e8c565b73ffffffffffffffffffffffffffffffffffffffff1614806114ac57506114766118f6565b73ffffffffffffffffffffffffffffffffffffffff16611494610585565b73ffffffffffffffffffffffffffffffffffffffff16145b6114eb576040517f08c379a00000000000000000000000000000000000000000000000000000000081526004016114e290612682565b60405180910390fd5b61150b5f8054906101000a90046bffffffffffffffffffffffff166118fd565b5f805f6101000a8154816bffffffffffffffffffffffff02191690836bffffffffffffffffffffffff160217905550565b6115446118f6565b73ffffffffffffffffffffffffffffffffffffffff166115626105ad565b73ffffffffffffffffffffffffffffffffffffffff16146115b8576040517f08c379a00000000000000000000000000000000000000000000000000000000081526004016115af90612eed565b60405180910390fd5b6115c3600154611a93565b6001546006819055505f600181905550565b6115dd6118f6565b73ffffffffffffffffffffffffffffffffffffffff166115fb6105ad565b73ffffffffffffffffffffffffffffffffffffffff1614611651576040517f08c379a000000000000000000000000000000000000000000000000000000000815260040161164890612eed565b60405180910390fd5b6116715f8054906101000a90046bffffffffffffffffffffffff166118fd565b5f8054906101000a90046bffffffffffffffffffffffff16600560146101000a8154816bffffffffffffffffffffffff02191690836bffffffffffffffffffffffff1602179055505f805f6101000a8154816bffffffffffffffffffffffff02191690836bffffffffffffffffffffffff160217905550565b5f8054906101000a90046bffffffffffffffffffffffff1681565b61170e81611d88565b50565b6117196118f6565b73ffffffffffffffffffffffffffffffffffffffff1661173761055d565b73ffffffffffffffffffffffffffffffffffffffff161480611792575061175c6118f6565b73ffffffffffffffffffffffffffffffffffffffff1661177a610e8c565b73ffffffffffffffffffffffffffffffffffffffff16145b806117d657506117a06118f6565b73ffffffffffffffffffffffffffffffffffffffff166117be610585565b73ffffffffffffffffffffffffffffffffffffffff16145b611815576040517f08c379a000000000000000000000000000000000000000000000000000000000815260040161180c90612bfc565b60405180910390fd5b5f6002805490509050808210611860576040517f08c379a000000000000000000000000000000000000000000000000000000000815260040161185790612f55565b60405180910390fd5b60018161186d91906129cf565b82146118c557600260018261188291906129cf565b8154811061189357611892612f73565b5b905f5260205f2001600283815481106118af576118ae612f73565b5b905f5260205f200190816118c39190612fc7565b505b60028054806118d7576118d66130ac565b5b600190038181905f5260205f20015f6118f0919061202e565b90555050565b5f33905090565b5f816bffffffffffffffffffffffff1611801561193857506127106bffffffffffffffffffffffff16816bffffffffffffffffffffffff1611155b611977576040517f08c379a000000000000000000000000000000000000000000000000000000000815260040161196e90613149565b60405180910390fd5b50565b6119826118f6565b73ffffffffffffffffffffffffffffffffffffffff166119a0610e8c565b73ffffffffffffffffffffffffffffffffffffffff16146119ff576119c36118f6565b6040517f118cdaa70000000000000000000000000000000000000000000000000000000081526004016119f691906120c5565b60405180910390fd5b565b5f611a0a611e0c565b90506002815f015403611a49576040517f3ee5aeb500000000000000000000000000000000000000000000000000000000815260040160405180910390fd5b6002815f018190555050565b5f611a5e611e0c565b90506001815f018190555050565b5f7f9016d09d72d40fdae2fd8ceac6b6234c7706214fd39c1cd1e609a0528c199300905090565b5f8111611ad5576040517f08c379a0000000000000000000000000000000000000000000000000000000008152600401611acc906131d7565b60405180910390fd5b50565b5f80611ae2611e33565b90508091505090565b5f73ffffffffffffffffffffffffffffffffffffffff168173ffffffffffffffffffffffffffffffffffffffff1603611b59576040517f08c379a0000000000000000000000000000000000000000000000000000000008152600401611b5090613265565b60405180910390fd5b8060035f6101000a81548173ffffffffffffffffffffffffffffffffffffffff021916908373ffffffffffffffffffffffffffffffffffffffff16021790555050565b5f73ffffffffffffffffffffffffffffffffffffffff168173ffffffffffffffffffffffffffffffffffffffff1603611c0a576040517f08c379a0000000000000000000000000000000000000000000000000000000008152600401611c01906132f3565b60405180910390fd5b8060045f6101000a81548173ffffffffffffffffffffffffffffffffffffffff021916908373ffffffffffffffffffffffffffffffffffffffff16021790555050565b611c55611e5c565b611c5e81611e9c565b50565b611c69611e5c565b611c71611f20565b565b5f73ffffffffffffffffffffffffffffffffffffffff168173ffffffffffffffffffffffffffffffffffffffff1603611ce1576040517f08c379a0000000000000000000000000000000000000000000000000000000008152600401611cd890613381565b60405180910390fd5b8060055f6101000a81548173ffffffffffffffffffffffffffffffffffffffff021916908373ffffffffffffffffffffffffffffffffffffffff16021790555050565b611d2d816118fd565b80600560146101000a8154816bffffffffffffffffffffffff02191690836bffffffffffffffffffffffff1602179055507fffffffffffffffffffffffffffffffffffffffffffffffffffffffffffffffff60068190555050565b611d9061197a565b5f73ffffffffffffffffffffffffffffffffffffffff168173ffffffffffffffffffffffffffffffffffffffff1603611e00575f6040517f1e4fbdf7000000000000000000000000000000000000000000000000000000008152600401611df791906120c5565b60405180910390fd5b611e0981611f3f565b50565b5f7f9b779b17422d0df92223018b32b4d1fa46e071723d6817e2486d003becc55f00905090565b5f7ff0c57e16840df040f15088dc2f81fe391c3923bec73e23a9662efc9c229c6a005f1b905090565b611e64612010565b611e9a576040517fd7e6bcf800000000000000000000000000000000000000000000000000000000815260040160405180910390fd5b565b611ea4611e5c565b5f73ffffffffffffffffffffffffffffffffffffffff168173ffffffffffffffffffffffffffffffffffffffff1603611f14575f6040517f1e4fbdf7000000000000000000000000000000000000000000000000000000008152600401611f0b91906120c5565b60405180910390fd5b611f1d81611f3f565b50565b611f28611e5c565b5f611f31611e0c565b90506001815f018190555050565b5f611f48611a6c565b90505f815f015f9054906101000a900473ffffffffffffffffffffffffffffffffffffffff16905082825f015f6101000a81548173ffffffffffffffffffffffffffffffffffffffff021916908373ffffffffffffffffffffffffffffffffffffffff1602179055508273ffffffffffffffffffffffffffffffffffffffff168173ffffffffffffffffffffffffffffffffffffffff167f8be0079c531659141344cd1fd0a4f28419497f9722a3daafe3b4186f6b6457e060405160405180910390a3505050565b5f612019611ad8565b5f0160089054906101000a900460ff16905090565b50805461203a906128a9565b5f825580601f1061204b5750612068565b601f0160209004905f5260205f2090810190612067919061206b565b5b50565b5b80821115612082575f815f90555060010161206c565b5090565b5f73ffffffffffffffffffffffffffffffffffffffff82169050919050565b5f6120af82612086565b9050919050565b6120bf816120a5565b82525050565b5f6020820190506120d85f8301846120b6565b92915050565b5f604051905090565b5f80fd5b5f80fd5b5f6bffffffffffffffffffffffff82169050919050565b61210f816120ef565b8114612119575f80fd5b50565b5f8135905061212a81612106565b92915050565b5f60208284031215612145576121446120e7565b5b5f6121528482850161211c565b91505092915050565b612164816120a5565b811461216e575f80fd5b50565b5f8135905061217f8161215b565b92915050565b5f6020828403121561219a576121996120e7565b5b5f6121a784828501612171565b91505092915050565b5f819050919050565b6121c2816121b0565b81146121cc575f80fd5b50565b5f813590506121dd816121b9565b92915050565b5f602082840312156121f8576121f76120e7565b5b5f612205848285016121cf565b91505092915050565b5f81519050919050565b5f82825260208201905092915050565b5f5b8381101561224557808201518184015260208101905061222a565b5f8484015250505050565b5f601f19601f8301169050919050565b5f61226a8261220e565b6122748185612218565b9350612284818560208601612228565b61228d81612250565b840191505092915050565b5f6020820190508181035f8301526122b08184612260565b905092915050565b6122c1816120ef565b82525050565b5f6020820190506122da5f8301846122b8565b92915050565b6122e9816121b0565b82525050565b5f6020820190506123025f8301846122e0565b92915050565b5f805f80608085870312156123205761231f6120e7565b5b5f61232d87828801612171565b945050602061233e87828801612171565b935050604061234f8782880161211c565b925050606061236087828801612171565b91505092959194509250565b5f80fd5b5f80fd5b7f4e487b71000000000000000000000000000000000000000000000000000000005f52604160045260245ffd5b6123aa82612250565b810181811067ffffffffffffffff821117156123c9576123c8612374565b5b80604052505050565b5f6123db6120de565b90506123e782826123a1565b919050565b5f67ffffffffffffffff82111561240657612405612374565b5b61240f82612250565b9050602081019050919050565b828183375f83830152505050565b5f61243c612437846123ec565b6123d2565b90508281526020810184848401111561245857612457612370565b5b61246384828561241c565b509392505050565b5f82601f83011261247f5761247e61236c565b5b813561248f84826020860161242a565b91505092915050565b5f602082840312156124ad576124ac6120e7565b5b5f82013567ffffffffffffffff8111156124ca576124c96120eb565b5b6124d68482850161246b565b91505092915050565b5f81519050919050565b5f82825260208201905092915050565b5f819050602082019050919050565b5f82825260208201905092915050565b5f6125228261220e565b61252c8185612508565b935061253c818560208601612228565b61254581612250565b840191505092915050565b5f61255b8383612518565b905092915050565b5f602082019050919050565b5f612579826124df565b61258381856124e9565b935083602082028501612595856124f9565b805f5b858110156125d057848403895281516125b18582612550565b94506125bc83612563565b925060208a01995050600181019050612598565b50829750879550505050505092915050565b5f6020820190508181035f8301526125fa818461256f565b905092915050565b5f82825260208201905092915050565b7f52657761726452656365697665723a2063616c6c6572206973206e6f742074685f8201527f65206f776e6572206f722070726f766964657200000000000000000000000000602082015250565b5f61266c603383612602565b915061267782612612565b604082019050919050565b5f6020820190508181035f83015261269981612660565b9050919050565b7f4e487b71000000000000000000000000000000000000000000000000000000005f52601160045260245ffd5b5f6126d7826121b0565b91506126e2836121b0565b92508282026126f0816121b0565b91508282048414831517612707576127066126a0565b5b5092915050565b7f4e487b71000000000000000000000000000000000000000000000000000000005f52601260045260245ffd5b5f612745826121b0565b9150612750836121b0565b9250826127605761275f61270e565b5b828204905092915050565b7f52657761726452656365697665723a20616d6f756e7420746f6f206c6f7700005f82015250565b5f61279f601e83612602565b91506127aa8261276b565b602082019050919050565b5f6020820190508181035f8301526127cc81612793565b9050919050565b5f81905092915050565b50565b5f6127eb5f836127d3565b91506127f6826127dd565b5f82019050919050565b5f61280a826127e0565b9150819050919050565b7f52657761726452656365697665723a207472616e73666572206661696c6564005f82015250565b5f612848601f83612602565b915061285382612814565b602082019050919050565b5f6020820190508181035f8301526128758161283c565b9050919050565b7f4e487b71000000000000000000000000000000000000000000000000000000005f52602260045260245ffd5b5f60028204905060018216806128c057607f821691505b6020821081036128d3576128d261287c565b5b50919050565b7f52657761726452656365697665723a2063616c6c6572206973206e6f742074685f8201527f65206f776e65722c20636c69656e74206f722070726f76696465720000000000602082015250565b5f612933603b83612602565b915061293e826128d9565b604082019050919050565b5f6020820190508181035f83015261296081612927565b9050919050565b7f52657761726452656365697665723a2070656e64696e672073746174650000005f82015250565b5f61299b601d83612602565b91506129a682612967565b602082019050919050565b5f6020820190508181035f8301526129c88161298f565b9050919050565b5f6129d9826121b0565b91506129e4836121b0565b92508282039050818111156129fc576129fb6126a0565b5b92915050565b7f52657761726452656365697665723a20636f6d697373696f6e20746f6f206c6f5f8201527f7700000000000000000000000000000000000000000000000000000000000000602082015250565b5f612a5c602183612602565b9150612a6782612a02565b604082019050919050565b5f6020820190508181035f830152612a8981612a50565b9050919050565b7f52657761726452656365697665723a2072656e6f756e63654f776e65727368695f8201527f702069732064697361626c656400000000000000000000000000000000000000602082015250565b5f612aea602d83612602565b9150612af582612a90565b604082019050919050565b5f6020820190508181035f830152612b1781612ade565b9050919050565b5f819050919050565b5f67ffffffffffffffff82169050919050565b5f819050919050565b5f612b5d612b58612b5384612b1e565b612b3a565b612b27565b9050919050565b612b6d81612b43565b82525050565b5f602082019050612b865f830184612b64565b92915050565b7f52657761726452656365697665723a2063616c6c6572206973206e6f742073745f8201527f616b65506164206f722070726f7669646572206f72206f776e65720000000000602082015250565b5f612be6603b83612602565b9150612bf182612b8c565b604082019050919050565b5f6020820190508181035f830152612c1381612bda565b9050919050565b5f819050815f5260205f209050919050565b5f6020601f8301049050919050565b5f82821b905092915050565b5f60088302612c767fffffffffffffffffffffffffffffffffffffffffffffffffffffffffffffffff82612c3b565b612c808683612c3b565b95508019841693508086168417925050509392505050565b5f612cb2612cad612ca8846121b0565b612b3a565b6121b0565b9050919050565b5f819050919050565b612ccb83612c98565b612cdf612cd782612cb9565b848454612c47565b825550505050565b5f90565b612cf3612ce7565b612cfe818484612cc2565b505050565b5b81811015612d2157612d165f82612ceb565b600181019050612d04565b5050565b601f821115612d6657612d3781612c1a565b612d4084612c2c565b81016020851015612d4f578190505b612d63612d5b85612c2c565b830182612d03565b50505b505050565b5f82821c905092915050565b5f612d865f1984600802612d6b565b1980831691505092915050565b5f612d9e8383612d77565b9150826002028217905092915050565b612db78261220e565b67ffffffffffffffff811115612dd057612dcf612374565b5b612dda82546128a9565b612de5828285612d25565b5f60209050601f831160018114612e16575f8415612e04578287015190505b612e0e8582612d93565b865550612e75565b601f198416612e2486612c1a565b5f5b82811015612e4b57848901518255600182019150602085019450602081019050612e26565b86831015612e685784890151612e64601f891682612d77565b8355505b6001600288020188555050505b505050505050565b7f52657761726452656365697665723a2063616c6c6572206973206e6f742074685f8201527f6520636c69656e74000000000000000000000000000000000000000000000000602082015250565b5f612ed7602883612602565b9150612ee282612e7d565b604082019050919050565b5f6020820190508181035f830152612f0481612ecb565b9050919050565b7f5265776172645265636569766572203a20696e76616c696420696e64657800005f82015250565b5f612f3f601e83612602565b9150612f4a82612f0b565b602082019050919050565b5f6020820190508181035f830152612f6c81612f33565b9050919050565b7f4e487b71000000000000000000000000000000000000000000000000000000005f52603260045260245ffd5b5f81549050612fae816128a9565b9050919050565b5f819050815f5260205f209050919050565b818103612fd55750506130aa565b612fde82612fa0565b67ffffffffffffffff811115612ff757612ff6612374565b5b61300182546128a9565b61300c828285612d25565b5f601f831160018114613039575f8415613027578287015490505b6130318582612d93565b8655506130a3565b601f19841661304787612fb5565b965061305286612c1a565b5f5b8281101561307957848901548255600182019150600185019450602081019050613054565b868310156130965784890154613092601f891682612d77565b8355505b6001600288020188555050505b5050505050505b565b7f4e487b71000000000000000000000000000000000000000000000000000000005f52603160045260245ffd5b7f52657761726452656365697665723a20696e76616c69642070657263656e74615f8201527f6765000000000000000000000000000000000000000000000000000000000000602082015250565b5f613133602283612602565b915061313e826130d9565b604082019050919050565b5f6020820190508181035f83015261316081613127565b9050919050565b7f52657761726452656365697665723a20696e76616c69642077697468647261775f8201527f616c207468726573686f6c640000000000000000000000000000000000000000602082015250565b5f6131c1602c83612602565b91506131cc82613167565b604082019050919050565b5f6020820190508181035f8301526131ee816131b5565b9050919050565b7f52657761726452656365697665723a20636c69656e7420697320746865207a655f8201527f726f206164647265737300000000000000000000000000000000000000000000602082015250565b5f61324f602a83612602565b915061325a826131f5565b604082019050919050565b5f6020820190508181035f83015261327c81613243565b9050919050565b7f52657761726452656365697665723a2070726f766964657220697320746865205f8201527f7a65726f20616464726573730000000000000000000000000000000000000000602082015250565b5f6132dd602c83612602565b91506132e882613283565b604082019050919050565b5f6020820190508181035f83015261330a816132d1565b9050919050565b7f52657761726452656365697665723a207374616b6550616420697320746865205f8201527f7a65726f20616464726573730000000000000000000000000000000000000000602082015250565b5f61336b602c83612602565b915061337682613311565b604082019050919050565b5f6020820190508181035f8301526133988161335f565b905091905056fea2646970667358221220ed499188afbd58437f0c566d30c6512fd3b77fdfd33e70b83bb1fdb8556befd964736f6c63430008160033","linkReferences":{}},"methodIdentifiers":{"BASIS_PTS()":"bf56f05e","INIT_WITHDRAWAL_THRESHOLD()":"71cd7ec4","acceptNewComission()":"da2692aa","acceptNewWithdrawalThreshold()":"c9768656","addValidator(bytes)":"a6d1ec5d","cancelNewComission()":"bffe0919","cancelNewWithdrawalThreshold()":"b499c441","changeStakePad(address)":"290b43fe","client()":"109e94cf","comission()":"3a4b4532","getValidators()":"b7ab4db5","initialize(address,address,uint96,address)":"976b0a77","owner()":"8da5cb5b","pendingComission()":"ee73b4f1","pendingWithdrawalThreshold()":"76845b89","percentageWithdraw(uint96)":"23637c86","proposeNewComission(uint96)":"11409a54","proposeNewWithdrawalThreshold(uint256)":"95a13999","provider()":"085d4883","removeValidator(uint256)":"f94e1867","renounceOwnership()":"715018a6","stakePad()":"021fc154","transferOwnership(address)":"f2fde38b","validators(uint256)":"35aa2e44","withdraw()":"3ccfd60b","withdrawalThreshold()":"7985fd51"},"id":49}