{"abi":[{"type":"constructor","inputs":[{"name":"_beaconDeposit","type":"address","internalType":"address"}],"stateMutability":"nonpayable"},{"type":"function","name":"UPGRADE_INTERFACE_VERSION","inputs":[],"outputs":[{"name":"","type":"string","internalType":"string"}],"stateMutability":"view"},{"type":"function","name":"beaconDeposit","inputs":[],"outputs":[{"name":"","type":"address","internalType":"contract IDepositContract"}],"stateMutability":"view"},{"type":"function","name":"deployNewRewardReceiver","inputs":[{"name":"client","type":"address","internalType":"address"},{"name":"provider","type":"address","internalType":"address"},{"name":"commission","type":"uint96","internalType":"uint96"}],"outputs":[],"stateMutability":"nonpayable"},{"type":"function","name":"fundValidators","inputs":[{"name":"DepositDataArray","type":"tuple[]","internalType":"struct StakePadUtils.BeaconDepositParams[]","components":[{"name":"pubkey","type":"bytes","internalType":"bytes"},{"name":"withdrawal_credentials","type":"bytes","internalType":"bytes"},{"name":"signature","type":"bytes","internalType":"bytes"},{"name":"deposit_data_root","type":"bytes32","internalType":"bytes32"},{"name":"amount","type":"uint256","internalType":"uint256"}]}],"outputs":[],"stateMutability":"payable"},{"type":"function","name":"initialize","inputs":[{"name":"newRewardReceiverImpl","type":"address","internalType":"address"}],"outputs":[],"stateMutability":"nonpayable"},{"type":"function","name":"isRegisteredRewardReceiver","inputs":[{"name":"rewardReceiver","type":"address","internalType":"address"}],"outputs":[{"name":"","type":"bool","internalType":"bool"}],"stateMutability":"view"},{"type":"function","name":"newVariable","inputs":[],"outputs":[{"name":"","type":"uint256","internalType":"uint256"}],"stateMutability":"view"},{"type":"function","name":"owner","inputs":[],"outputs":[{"name":"","type":"address","internalType":"address"}],"stateMutability":"view"},{"type":"function","name":"proxiableUUID","inputs":[],"outputs":[{"name":"","type":"bytes32","internalType":"bytes32"}],"stateMutability":"view"},{"type":"function","name":"renounceOwnership","inputs":[],"outputs":[],"stateMutability":"view"},{"type":"function","name":"rewardReceiverImpl","inputs":[],"outputs":[{"name":"","type":"address","internalType":"address"}],"stateMutability":"view"},{"type":"function","name":"setNewVariable","inputs":[{"name":"variable","type":"uint256","internalType":"uint256"}],"outputs":[],"stateMutability":"nonpayable"},{"type":"function","name":"transferOwnership","inputs":[{"name":"newOwner","type":"address","internalType":"address"}],"outputs":[],"stateMutability":"nonpayable"},{"type":"function","name":"updateDepositContract","inputs":[],"outputs":[],"stateMutability":"nonpayable"},{"type":"function","name":"updateRewardReceiverImpl","inputs":[{"name":"newRewardReceiverImpl","type":"address","internalType":"address"}],"outputs":[],"stateMutability":"nonpayable"},{"type":"function","name":"upgradeToAndCall","inputs":[{"name":"newImplementation","type":"address","internalType":"address"},{"name":"data","type":"bytes","internalType":"bytes"}],"outputs":[],"stateMutability":"payable"},{"type":"event","name":"Initialized","inputs":[{"name":"version","type":"uint64","indexed":false,"internalType":"uint64"}],"anonymous":false},{"type":"event","name":"NewRewardReceiver","inputs":[{"name":"index","type":"uint256","indexed":true,"internalType":"uint256"},{"name":"rewardReceiver","type":"address","indexed":false,"internalType":"address"},{"name":"client","type":"address","indexed":false,"internalType":"address"},{"name":"provider","type":"address","indexed":false,"internalType":"address"},{"name":"commission","type":"uint96","indexed":false,"internalType":"uint96"}],"anonymous":false},{"type":"event","name":"OwnershipTransferred","inputs":[{"name":"previousOwner","type":"address","indexed":true,"internalType":"address"},{"name":"newOwner","type":"address","indexed":true,"internalType":"address"}],"anonymous":false},{"type":"event","name":"Upgraded","inputs":[{"name":"implementation","type":"address","indexed":true,"internalType":"address"}],"anonymous":false},{"type":"error","name":"AddressEmptyCode","inputs":[{"name":"target","type":"address","internalType":"address"}]},{"type":"error","name":"ERC1967InvalidImplementation","inputs":[{"name":"implementation","type":"address","internalType":"address"}]},{"type":"error","name":"ERC1967NonPayable","inputs":[]},{"type":"error","name":"FailedCall","inputs":[]},{"type":"error","name":"FailedDeployment","inputs":[]},{"type":"error","name":"InsufficientBalance","inputs":[{"name":"balance","type":"uint256","internalType":"uint256"},{"name":"needed","type":"uint256","internalType":"uint256"}]},{"type":"error","name":"InvalidInitialization","inputs":[]},{"type":"error","name":"NotInitializing","inputs":[]},{"type":"error","name":"OwnableInvalidOwner","inputs":[{"name":"owner","type":"address","internalType":"address"}]},{"type":"error","name":"OwnableUnauthorizedAccount","inputs":[{"name":"account","type":"address","internalType":"address"}]},{"type":"error","name":"UUPSUnauthorizedCallContext","inputs":[]},{"type":"error","name":"UUPSUnsupportedProxiableUUID","inputs":[{"name":"slot","type":"bytes32","internalType":"bytes32"}]}],"bytecode":{"object":"0x60c06040523073ffffffffffffffffffffffffffffffffffffffff1660809073ffffffffffffffffffffffffffffffffffffffff1681525034801562000043575f80fd5b50604051620026d6380380620026d6833981810160405281019062000069919062000109565b8073ffffffffffffffffffffffffffffffffffffffff1660a08173ffffffffffffffffffffffffffffffffffffffff16815250505062000139565b5f80fd5b5f73ffffffffffffffffffffffffffffffffffffffff82169050919050565b5f620000d382620000a8565b9050919050565b620000e581620000c7565b8114620000f0575f80fd5b50565b5f815190506200010381620000da565b92915050565b5f60208284031215620001215762000120620000a4565b5b5f6200013084828501620000f3565b91505092915050565b60805160a051612566620001705f395f818161042901526106c401525f81816109ff01528181610a540152610c0e01526125665ff3fe6080604052600436106100f2575f3560e01c806398796d4811610089578063b860d67011610058578063b860d670146102c4578063c4d66de8146102e0578063cfc28a6714610308578063f2fde38b14610332576100f2565b806398796d4814610220578063a6abc32614610248578063ad3cb1cc1461025e578063b114ba8314610288576100f2565b8063715018a6116100c5578063715018a61461018c5780638d7a72f3146101a25780638da5cb5b146101cc578063918da8a5146101f6576100f2565b80631c02ea0e146100f65780634f1ef2861461011e57806352d1902d1461013a5780635c96539d14610164575b5f80fd5b348015610101575f80fd5b5061011c60048036038101906101179190611775565b61035a565b005b61013860048036038101906101339190611936565b61036c565b005b348015610145575f80fd5b5061014e61038b565b60405161015b91906119a8565b60405180910390f35b34801561016f575f80fd5b5061018a600480360381019061018591906119c1565b6103bc565b005b348015610197575f80fd5b506101a06103d0565b005b3480156101ad575f80fd5b506101b6610413565b6040516101c391906119fb565b60405180910390f35b3480156101d7575f80fd5b506101e0610419565b6040516101ed9190611a23565b60405180910390f35b348015610201575f80fd5b5061020a610427565b6040516102179190611a97565b60405180910390f35b34801561022b575f80fd5b5061024660048036038101906102419190611af1565b61044b565b005b348015610253575f80fd5b5061025c6105a1565b005b348015610269575f80fd5b506102726105ab565b60405161027f9190611bbb565b60405180910390f35b348015610293575f80fd5b506102ae60048036038101906102a991906119c1565b6105e4565b6040516102bb9190611bf5565b60405180910390f35b6102de60048036038101906102d99190611c6b565b6105f5565b005b3480156102eb575f80fd5b50610306600480360381019061030191906119c1565b61079d565b005b348015610313575f80fd5b5061031c61093b565b6040516103299190611a23565b60405180910390f35b34801561033d575f80fd5b50610358600480360381019061035391906119c1565b610962565b005b610362610976565b8060038190555050565b6103746109fd565b61037d82610ae3565b6103878282610aee565b5050565b5f610394610c0c565b7f360894a13ba1a3210667c828492db98dca3e2076cc3735a920a3ca505d382bbc5f1b905090565b6103c4610976565b6103cd81610c93565b50565b6103d8610976565b6040517f08c379a000000000000000000000000000000000000000000000000000000000815260040161040a90611d26565b60405180910390fd5b60035481565b5f610422610d43565b905090565b7f000000000000000000000000000000000000000000000000000000000000000081565b610453610976565b5f61046461045f61093b565b610d78565b90508073ffffffffffffffffffffffffffffffffffffffff1663976b0a77858585306040518563ffffffff1660e01b81526004016104a59493929190611d53565b5f604051808303815f87803b1580156104bc575f80fd5b505af11580156104ce573d5f803e3d5ffd5b505050508073ffffffffffffffffffffffffffffffffffffffff1663f2fde38b6104f6610419565b6040518263ffffffff1660e01b81526004016105129190611a23565b5f604051808303815f87803b158015610529575f80fd5b505af115801561053b573d5f803e3d5ffd5b50505050610553816001610d8a90919063ffffffff16565b5061055e6001610db7565b7f9e3c9c2af127dbceab3a8ba63b0e9df1d1170515308547c5967e63177bfb0b68828686866040516105939493929190611d96565b60405180910390a250505050565b6105a9610976565b565b6040518060400160405280600581526020017f352e302e3000000000000000000000000000000000000000000000000000000081525081565b5f6105ee82610dca565b9050919050565b818190506801bc16d674ec80000061060d9190611e06565b341461064e576040517f08c379a000000000000000000000000000000000000000000000000000000000815260040161064590611eb7565b60405180910390fd5b5f5b82829050811015610798573683838381811061066f5761066e611ed5565b5b90506020028101906106819190611f0e565b905061069b8180602001906106969190611f35565b610de6565b6106c281805f01906106ad9190611f35565b8380602001906106bd9190611f35565b610ecc565b7f000000000000000000000000000000000000000000000000000000000000000073ffffffffffffffffffffffffffffffffffffffff1663228951186801bc16d674ec80000083805f01906107179190611f35565b8580602001906107279190611f35565b8780604001906107379190611f35565b89606001356040518963ffffffff1660e01b815260040161075e9796959493929190611fd3565b5f604051808303818588803b158015610775575f80fd5b505af1158015610787573d5f803e3d5ffd5b505050505050806001019050610650565b505050565b5f6107a6610fa0565b90505f815f0160089054906101000a900460ff161590505f825f015f9054906101000a900467ffffffffffffffff1690505f808267ffffffffffffffff161480156107ee5750825b90505f60018367ffffffffffffffff1614801561082157505f3073ffffffffffffffffffffffffffffffffffffffff163b145b90508115801561082f575080155b15610866576040517ff92ee8a900000000000000000000000000000000000000000000000000000000815260040160405180910390fd5b6001855f015f6101000a81548167ffffffffffffffff021916908367ffffffffffffffff16021790555083156108b3576001855f0160086101000a81548160ff0219169083151502179055505b6108bc86610c93565b6108d973d60ca38884509c7b296da19a44c71c61d9e78eff610fb3565b8315610933575f855f0160086101000a81548160ff0219169083151502179055507fc7f505b2f371ae2175ee4913f4499e1f2633a7b5936321eed1cdaeb6115181d2600160405161092a919061207d565b60405180910390a15b505050505050565b5f805f9054906101000a900473ffffffffffffffffffffffffffffffffffffffff16905090565b61096a610976565b61097381610fc7565b50565b61097e61104b565b73ffffffffffffffffffffffffffffffffffffffff1661099c610419565b73ffffffffffffffffffffffffffffffffffffffff16146109fb576109bf61104b565b6040517f118cdaa70000000000000000000000000000000000000000000000000000000081526004016109f29190611a23565b60405180910390fd5b565b7f000000000000000000000000000000000000000000000000000000000000000073ffffffffffffffffffffffffffffffffffffffff163073ffffffffffffffffffffffffffffffffffffffff161480610aaa57507f000000000000000000000000000000000000000000000000000000000000000073ffffffffffffffffffffffffffffffffffffffff16610a91611052565b73ffffffffffffffffffffffffffffffffffffffff1614155b15610ae1576040517fe07c8dba00000000000000000000000000000000000000000000000000000000815260040160405180910390fd5b565b610aeb610976565b50565b8173ffffffffffffffffffffffffffffffffffffffff166352d1902d6040518163ffffffff1660e01b8152600401602060405180830381865afa925050508015610b5657506040513d601f19601f82011682018060405250810190610b5391906120c0565b60015b610b9757816040517f4c9c8ce3000000000000000000000000000000000000000000000000000000008152600401610b8e9190611a23565b60405180910390fd5b7f360894a13ba1a3210667c828492db98dca3e2076cc3735a920a3ca505d382bbc5f1b8114610bfd57806040517faa1d49a4000000000000000000000000000000000000000000000000000000008152600401610bf491906119a8565b60405180910390fd5b610c0783836110a5565b505050565b7f000000000000000000000000000000000000000000000000000000000000000073ffffffffffffffffffffffffffffffffffffffff163073ffffffffffffffffffffffffffffffffffffffff1614610c91576040517fe07c8dba00000000000000000000000000000000000000000000000000000000815260040160405180910390fd5b565b5f73ffffffffffffffffffffffffffffffffffffffff168173ffffffffffffffffffffffffffffffffffffffff1603610d01576040517f08c379a0000000000000000000000000000000000000000000000000000000008152600401610cf89061215b565b60405180910390fd5b805f806101000a81548173ffffffffffffffffffffffffffffffffffffffff021916908373ffffffffffffffffffffffffffffffffffffffff16021790555050565b5f80610d4d611117565b9050805f015f9054906101000a900473ffffffffffffffffffffffffffffffffffffffff1691505090565b5f610d83825f61113e565b9050919050565b5f610daf835f018373ffffffffffffffffffffffffffffffffffffffff165f1b611233565b905092915050565b5f610dc3825f0161129a565b9050919050565b5f610ddf8260016112a990919063ffffffff16565b9050919050565b60208282905014610e2c576040517f08c379a0000000000000000000000000000000000000000000000000000000008152600401610e23906121e9565b60405180910390fd5b5f8282600c908092610e409392919061220f565b90610e4b919061228a565b60601c9050610e5981610dca565b8015610e885750600183835f90600192610e759392919061220f565b90610e809190612313565b60f81c60ff16145b610ec7576040517f08c379a0000000000000000000000000000000000000000000000000000000008152600401610ebe906123e1565b60405180910390fd5b505050565b60308484905014610f12576040517f08c379a0000000000000000000000000000000000000000000000000000000008152600401610f099061246f565b60405180910390fd5b8181600c908092610f259392919061220f565b90610f30919061228a565b60601c73ffffffffffffffffffffffffffffffffffffffff1663a6d1ec5d85856040518363ffffffff1660e01b8152600401610f6d92919061248d565b5f604051808303815f87803b158015610f84575f80fd5b505af1158015610f96573d5f803e3d5ffd5b5050505050505050565b5f80610faa6112d6565b90508091505090565b610fbb6112ff565b610fc48161133f565b50565b610fcf610976565b5f73ffffffffffffffffffffffffffffffffffffffff168173ffffffffffffffffffffffffffffffffffffffff160361103f575f6040517f1e4fbdf70000000000000000000000000000000000000000000000000000000081526004016110369190611a23565b60405180910390fd5b611048816113c3565b50565b5f33905090565b5f61107e7f360894a13ba1a3210667c828492db98dca3e2076cc3735a920a3ca505d382bbc5f1b611494565b5f015f9054906101000a900473ffffffffffffffffffffffffffffffffffffffff16905090565b6110ae8261149d565b8173ffffffffffffffffffffffffffffffffffffffff167fbc7cd75a20ee27fd9adebab32041f755214dbc6bffa90cc0225b39da2e5c2d3b60405160405180910390a25f8151111561110a576111048282611566565b50611113565b6111126115e6565b5b5050565b5f7f9016d09d72d40fdae2fd8ceac6b6234c7706214fd39c1cd1e609a0528c199300905090565b5f814710156111865747826040517fcf47918100000000000000000000000000000000000000000000000000000000815260040161117d9291906124af565b60405180910390fd5b763d602d80600a3d3981f3363d3d373d3d3d363d730000008360601b60e81c175f526e5af43d82803e903d91602b57fd5bf38360781b176020526037600983f090505f73ffffffffffffffffffffffffffffffffffffffff168173ffffffffffffffffffffffffffffffffffffffff160361122d576040517fb06ebf3d00000000000000000000000000000000000000000000000000000000815260040160405180910390fd5b92915050565b5f61123e8383611622565b61129057825f0182908060018154018082558091505060019003905f5260205f20015f9091909190915055825f0180549050836001015f8481526020019081526020015f208190555060019050611294565b5f90505b92915050565b5f815f01805490509050919050565b5f6112ce835f018373ffffffffffffffffffffffffffffffffffffffff165f1b611622565b905092915050565b5f7ff0c57e16840df040f15088dc2f81fe391c3923bec73e23a9662efc9c229c6a005f1b905090565b611307611642565b61133d576040517fd7e6bcf800000000000000000000000000000000000000000000000000000000815260040160405180910390fd5b565b6113476112ff565b5f73ffffffffffffffffffffffffffffffffffffffff168173ffffffffffffffffffffffffffffffffffffffff16036113b7575f6040517f1e4fbdf70000000000000000000000000000000000000000000000000000000081526004016113ae9190611a23565b60405180910390fd5b6113c0816113c3565b50565b5f6113cc611117565b90505f815f015f9054906101000a900473ffffffffffffffffffffffffffffffffffffffff16905082825f015f6101000a81548173ffffffffffffffffffffffffffffffffffffffff021916908373ffffffffffffffffffffffffffffffffffffffff1602179055508273ffffffffffffffffffffffffffffffffffffffff168173ffffffffffffffffffffffffffffffffffffffff167f8be0079c531659141344cd1fd0a4f28419497f9722a3daafe3b4186f6b6457e060405160405180910390a3505050565b5f819050919050565b5f8173ffffffffffffffffffffffffffffffffffffffff163b036114f857806040517f4c9c8ce30000000000000000000000000000000000000000000000000000000081526004016114ef9190611a23565b60405180910390fd5b806115247f360894a13ba1a3210667c828492db98dca3e2076cc3735a920a3ca505d382bbc5f1b611494565b5f015f6101000a81548173ffffffffffffffffffffffffffffffffffffffff021916908373ffffffffffffffffffffffffffffffffffffffff16021790555050565b60605f808473ffffffffffffffffffffffffffffffffffffffff168460405161158f919061251a565b5f60405180830381855af49150503d805f81146115c7576040519150601f19603f3d011682016040523d82523d5f602084013e6115cc565b606091505b50915091506115dc858383611660565b9250505092915050565b5f341115611620576040517fb398979f00000000000000000000000000000000000000000000000000000000815260040160405180910390fd5b565b5f80836001015f8481526020019081526020015f20541415905092915050565b5f61164b610fa0565b5f0160089054906101000a900460ff16905090565b60608261167557611670826116ed565b6116e5565b5f825114801561169b57505f8473ffffffffffffffffffffffffffffffffffffffff163b145b156116dd57836040517f9996b3150000000000000000000000000000000000000000000000000000000081526004016116d49190611a23565b60405180910390fd5b8190506116e6565b5b9392505050565b5f815111156116ff5780518082602001fd5b6040517fd6bda27500000000000000000000000000000000000000000000000000000000815260040160405180910390fd5b5f604051905090565b5f80fd5b5f80fd5b5f819050919050565b61175481611742565b811461175e575f80fd5b50565b5f8135905061176f8161174b565b92915050565b5f6020828403121561178a5761178961173a565b5b5f61179784828501611761565b91505092915050565b5f73ffffffffffffffffffffffffffffffffffffffff82169050919050565b5f6117c9826117a0565b9050919050565b6117d9816117bf565b81146117e3575f80fd5b50565b5f813590506117f4816117d0565b92915050565b5f80fd5b5f80fd5b5f601f19601f8301169050919050565b7f4e487b71000000000000000000000000000000000000000000000000000000005f52604160045260245ffd5b61184882611802565b810181811067ffffffffffffffff8211171561186757611866611812565b5b80604052505050565b5f611879611731565b9050611885828261183f565b919050565b5f67ffffffffffffffff8211156118a4576118a3611812565b5b6118ad82611802565b9050602081019050919050565b828183375f83830152505050565b5f6118da6118d58461188a565b611870565b9050828152602081018484840111156118f6576118f56117fe565b5b6119018482856118ba565b509392505050565b5f82601f83011261191d5761191c6117fa565b5b813561192d8482602086016118c8565b91505092915050565b5f806040838503121561194c5761194b61173a565b5b5f611959858286016117e6565b925050602083013567ffffffffffffffff81111561197a5761197961173e565b5b61198685828601611909565b9150509250929050565b5f819050919050565b6119a281611990565b82525050565b5f6020820190506119bb5f830184611999565b92915050565b5f602082840312156119d6576119d561173a565b5b5f6119e3848285016117e6565b91505092915050565b6119f581611742565b82525050565b5f602082019050611a0e5f8301846119ec565b92915050565b611a1d816117bf565b82525050565b5f602082019050611a365f830184611a14565b92915050565b5f819050919050565b5f611a5f611a5a611a55846117a0565b611a3c565b6117a0565b9050919050565b5f611a7082611a45565b9050919050565b5f611a8182611a66565b9050919050565b611a9181611a77565b82525050565b5f602082019050611aaa5f830184611a88565b92915050565b5f6bffffffffffffffffffffffff82169050919050565b611ad081611ab0565b8114611ada575f80fd5b50565b5f81359050611aeb81611ac7565b92915050565b5f805f60608486031215611b0857611b0761173a565b5b5f611b15868287016117e6565b9350506020611b26868287016117e6565b9250506040611b3786828701611add565b9150509250925092565b5f81519050919050565b5f82825260208201905092915050565b5f5b83811015611b78578082015181840152602081019050611b5d565b5f8484015250505050565b5f611b8d82611b41565b611b978185611b4b565b9350611ba7818560208601611b5b565b611bb081611802565b840191505092915050565b5f6020820190508181035f830152611bd38184611b83565b905092915050565b5f8115159050919050565b611bef81611bdb565b82525050565b5f602082019050611c085f830184611be6565b92915050565b5f80fd5b5f80fd5b5f8083601f840112611c2b57611c2a6117fa565b5b8235905067ffffffffffffffff811115611c4857611c47611c0e565b5b602083019150836020820283011115611c6457611c63611c12565b5b9250929050565b5f8060208385031215611c8157611c8061173a565b5b5f83013567ffffffffffffffff811115611c9e57611c9d61173e565b5b611caa85828601611c16565b92509250509250929050565b7f5374616b6550616456313a2063616e6e6f742072656e6f756e6365206f776e655f8201527f7273686970000000000000000000000000000000000000000000000000000000602082015250565b5f611d10602583611b4b565b9150611d1b82611cb6565b604082019050919050565b5f6020820190508181035f830152611d3d81611d04565b9050919050565b611d4d81611ab0565b82525050565b5f608082019050611d665f830187611a14565b611d736020830186611a14565b611d806040830185611d44565b611d8d6060830184611a14565b95945050505050565b5f608082019050611da95f830187611a14565b611db66020830186611a14565b611dc36040830185611a14565b611dd06060830184611d44565b95945050505050565b7f4e487b71000000000000000000000000000000000000000000000000000000005f52601160045260245ffd5b5f611e1082611742565b9150611e1b83611742565b9250828202611e2981611742565b91508282048414831517611e4057611e3f611dd9565b5b5092915050565b7f5374616b6550616456313a20696e636f727265637420616d6f756e74206f66205f8201527f4554480000000000000000000000000000000000000000000000000000000000602082015250565b5f611ea1602383611b4b565b9150611eac82611e47565b604082019050919050565b5f6020820190508181035f830152611ece81611e95565b9050919050565b7f4e487b71000000000000000000000000000000000000000000000000000000005f52603260045260245ffd5b5f80fd5b5f80fd5b5f80fd5b5f8235600160a003833603038112611f2957611f28611f02565b5b80830191505092915050565b5f8083356001602003843603038112611f5157611f50611f02565b5b80840192508235915067ffffffffffffffff821115611f7357611f72611f06565b5b602083019250600182023603831315611f8f57611f8e611f0a565b5b509250929050565b5f82825260208201905092915050565b5f611fb28385611f97565b9350611fbf8385846118ba565b611fc883611802565b840190509392505050565b5f6080820190508181035f830152611fec81898b611fa7565b90508181036020830152612001818789611fa7565b90508181036040830152612016818587611fa7565b90506120256060830184611999565b98975050505050505050565b5f819050919050565b5f67ffffffffffffffff82169050919050565b5f61206761206261205d84612031565b611a3c565b61203a565b9050919050565b6120778161204d565b82525050565b5f6020820190506120905f83018461206e565b92915050565b61209f81611990565b81146120a9575f80fd5b50565b5f815190506120ba81612096565b92915050565b5f602082840312156120d5576120d461173a565b5b5f6120e2848285016120ac565b91505092915050565b7f5374616b6550616456313a206e657720696d706c656d656e746174696f6e20695f8201527f7320746865207a65726f20616464726573730000000000000000000000000000602082015250565b5f612145603283611b4b565b9150612150826120eb565b604082019050919050565b5f6020820190508181035f83015261217281612139565b9050919050565b7f5374616b6550616456313a20696e76616c6964207769746864726177616c5f635f8201527f726564656e7469616c73206c656e677468000000000000000000000000000000602082015250565b5f6121d3603183611b4b565b91506121de82612179565b604082019050919050565b5f6020820190508181035f830152612200816121c7565b9050919050565b5f80fd5b5f80fd5b5f808585111561222257612221612207565b5b838611156122335761223261220b565b5b6001850283019150848603905094509492505050565b5f82905092915050565b5f7fffffffffffffffffffffffffffffffffffffffff00000000000000000000000082169050919050565b5f82821b905092915050565b5f6122958383612249565b826122a08135612253565b925060148210156122e0576122db7fffffffffffffffffffffffffffffffffffffffff0000000000000000000000008360140360080261227e565b831692505b505092915050565b5f7fff0000000000000000000000000000000000000000000000000000000000000082169050919050565b5f61231e8383612249565b8261232981356122e8565b92506001821015612369576123647fff000000000000000000000000000000000000000000000000000000000000008360010360080261227e565b831692505b505092915050565b7f5374616b6550616456313a20696e76616c6964207769746864726177616c5f635f8201527f726564656e7469616c7300000000000000000000000000000000000000000000602082015250565b5f6123cb602a83611b4b565b91506123d682612371565b604082019050919050565b5f6020820190508181035f8301526123f8816123bf565b9050919050565b7f5374616b6550616456313a20696e76616c6964207075626b6579206c656e67745f8201527f6800000000000000000000000000000000000000000000000000000000000000602082015250565b5f612459602183611b4b565b9150612464826123ff565b604082019050919050565b5f6020820190508181035f8301526124868161244d565b9050919050565b5f6020820190508181035f8301526124a6818486611fa7565b90509392505050565b5f6040820190506124c25f8301856119ec565b6124cf60208301846119ec565b9392505050565b5f81519050919050565b5f81905092915050565b5f6124f4826124d6565b6124fe81856124e0565b935061250e818560208601611b5b565b80840191505092915050565b5f61252582846124ea565b91508190509291505056fea2646970667358221220a40a8ea3affe6d9f4ebb959dcb4fe62bd0c1878d4b5e4c31ba1346990387343f64736f6c63430008160033","linkReferences":{}},"methodIdentifiers":{"UPGRADE_INTERFACE_VERSION()":"ad3cb1cc","beaconDeposit()":"918da8a5","deployNewRewardReceiver(address,address,uint96)":"98796d48","fundValidators((bytes,bytes,bytes,bytes32,uint256)[])":"b860d670","initialize(address)":"c4d66de8","isRegisteredRewardReceiver(address)":"b114ba83","newVariable()":"8d7a72f3","owner()":"8da5cb5b","proxiableUUID()":"52d1902d","renounceOwnership()":"715018a6","rewardReceiverImpl()":"cfc28a67","setNewVariable(uint256)":"1c02ea0e","transferOwnership(address)":"f2fde38b","updateDepositContract()":"a6abc326","updateRewardReceiverImpl(address)":"5c96539d","upgradeToAndCall(address,bytes)":"4f1ef286"},"id":50}