{"abi":[{"type":"constructor","inputs":[{"name":"_beaconDeposit","type":"address","internalType":"address"}],"stateMutability":"nonpayable"},{"type":"function","name":"UPGRADE_INTERFACE_VERSION","inputs":[],"outputs":[{"name":"","type":"string","internalType":"string"}],"stateMutability":"view"},{"type":"function","name":"beaconDeposit","inputs":[],"outputs":[{"name":"","type":"address","internalType":"contract IDepositContract"}],"stateMutability":"view"},{"type":"function","name":"deployNewRewardReceiver","inputs":[{"name":"client","type":"address","internalType":"address"},{"name":"provider","type":"address","internalType":"address"},{"name":"comission","type":"uint96","internalType":"uint96"}],"outputs":[],"stateMutability":"nonpayable"},{"type":"function","name":"fundValidators","inputs":[{"name":"DepositDataArray","type":"tuple[]","internalType":"struct StakePadUtils.BeaconDepositParams[]","components":[{"name":"pubkey","type":"bytes","internalType":"bytes"},{"name":"withdrawal_credentials","type":"bytes","internalType":"bytes"},{"name":"signature","type":"bytes","internalType":"bytes"},{"name":"deposit_data_root","type":"bytes32","internalType":"bytes32"},{"name":"depositValue","type":"uint256","internalType":"uint256"}]}],"outputs":[],"stateMutability":"payable"},{"type":"function","name":"initialize","inputs":[{"name":"newRewardReceiverImpl","type":"address","internalType":"address"}],"outputs":[],"stateMutability":"nonpayable"},{"type":"function","name":"isRegisteredRewardReceiver","inputs":[{"name":"rewardReceiver","type":"address","internalType":"address"}],"outputs":[{"name":"","type":"bool","internalType":"bool"}],"stateMutability":"view"},{"type":"function","name":"newVariable","inputs":[],"outputs":[{"name":"","type":"uint256","internalType":"uint256"}],"stateMutability":"view"},{"type":"function","name":"owner","inputs":[],"outputs":[{"name":"","type":"address","internalType":"address"}],"stateMutability":"view"},{"type":"function","name":"proxiableUUID","inputs":[],"outputs":[{"name":"","type":"bytes32","internalType":"bytes32"}],"stateMutability":"view"},{"type":"function","name":"renounceOwnership","inputs":[],"outputs":[],"stateMutability":"view"},{"type":"function","name":"rewardReceiverImpl","inputs":[],"outputs":[{"name":"","type":"address","internalType":"address"}],"stateMutability":"view"},{"type":"function","name":"setNewVariable","inputs":[{"name":"variable","type":"uint256","internalType":"uint256"}],"outputs":[],"stateMutability":"nonpayable"},{"type":"function","name":"transferOwnership","inputs":[{"name":"newOwner","type":"address","internalType":"address"}],"outputs":[],"stateMutability":"nonpayable"},{"type":"function","name":"updateDepositContract","inputs":[],"outputs":[],"stateMutability":"nonpayable"},{"type":"function","name":"updateRewardReceiverImpl","inputs":[{"name":"newRewardReceiverImpl","type":"address","internalType":"address"}],"outputs":[],"stateMutability":"nonpayable"},{"type":"function","name":"upgradeToAndCall","inputs":[{"name":"newImplementation","type":"address","internalType":"address"},{"name":"data","type":"bytes","internalType":"bytes"}],"outputs":[],"stateMutability":"payable"},{"type":"event","name":"Initialized","inputs":[{"name":"version","type":"uint64","indexed":false,"internalType":"uint64"}],"anonymous":false},{"type":"event","name":"NewRewardReceiver","inputs":[{"name":"index","type":"uint256","indexed":true,"internalType":"uint256"},{"name":"rewardReceiver","type":"address","indexed":false,"internalType":"address"},{"name":"client","type":"address","indexed":false,"internalType":"address"},{"name":"provider","type":"address","indexed":false,"internalType":"address"},{"name":"comission","type":"uint96","indexed":false,"internalType":"uint96"}],"anonymous":false},{"type":"event","name":"OwnershipTransferred","inputs":[{"name":"previousOwner","type":"address","indexed":true,"internalType":"address"},{"name":"newOwner","type":"address","indexed":true,"internalType":"address"}],"anonymous":false},{"type":"event","name":"Upgraded","inputs":[{"name":"implementation","type":"address","indexed":true,"internalType":"address"}],"anonymous":false},{"type":"error","name":"AddressEmptyCode","inputs":[{"name":"target","type":"address","internalType":"address"}]},{"type":"error","name":"ERC1967InvalidImplementation","inputs":[{"name":"implementation","type":"address","internalType":"address"}]},{"type":"error","name":"ERC1967NonPayable","inputs":[]},{"type":"error","name":"FailedCall","inputs":[]},{"type":"error","name":"FailedDeployment","inputs":[]},{"type":"error","name":"InsufficientBalance","inputs":[{"name":"balance","type":"uint256","internalType":"uint256"},{"name":"needed","type":"uint256","internalType":"uint256"}]},{"type":"error","name":"InvalidInitialization","inputs":[]},{"type":"error","name":"NotInitializing","inputs":[]},{"type":"error","name":"OwnableInvalidOwner","inputs":[{"name":"owner","type":"address","internalType":"address"}]},{"type":"error","name":"OwnableUnauthorizedAccount","inputs":[{"name":"account","type":"address","internalType":"address"}]},{"type":"error","name":"UUPSUnauthorizedCallContext","inputs":[]},{"type":"error","name":"UUPSUnsupportedProxiableUUID","inputs":[{"name":"slot","type":"bytes32","internalType":"bytes32"}]}],"bytecode":{"object":"0x60c06040523073ffffffffffffffffffffffffffffffffffffffff1660809073ffffffffffffffffffffffffffffffffffffffff1681525034801562000043575f80fd5b50604051620026c1380380620026c1833981810160405281019062000069919062000109565b8073ffffffffffffffffffffffffffffffffffffffff1660a08173ffffffffffffffffffffffffffffffffffffffff16815250505062000139565b5f80fd5b5f73ffffffffffffffffffffffffffffffffffffffff82169050919050565b5f620000d382620000a8565b9050919050565b620000e581620000c7565b8114620000f0575f80fd5b50565b5f815190506200010381620000da565b92915050565b5f60208284031215620001215762000120620000a4565b5b5f6200013084828501620000f3565b91505092915050565b60805160a051612551620001705f395f818161042901526106c401525f81816109eb01528181610a400152610bfa01526125515ff3fe6080604052600436106100f2575f3560e01c806398796d4811610089578063b860d67011610058578063b860d670146102c4578063c4d66de8146102e0578063cfc28a6714610308578063f2fde38b14610332576100f2565b806398796d4814610220578063a6abc32614610248578063ad3cb1cc1461025e578063b114ba8314610288576100f2565b8063715018a6116100c5578063715018a61461018c5780638d7a72f3146101a25780638da5cb5b146101cc578063918da8a5146101f6576100f2565b80631c02ea0e146100f65780634f1ef2861461011e57806352d1902d1461013a5780635c96539d14610164575b5f80fd5b348015610101575f80fd5b5061011c60048036038101906101179190611760565b61035a565b005b61013860048036038101906101339190611921565b61036c565b005b348015610145575f80fd5b5061014e61038b565b60405161015b9190611993565b60405180910390f35b34801561016f575f80fd5b5061018a600480360381019061018591906119ac565b6103bc565b005b348015610197575f80fd5b506101a06103d0565b005b3480156101ad575f80fd5b506101b6610413565b6040516101c391906119e6565b60405180910390f35b3480156101d7575f80fd5b506101e0610419565b6040516101ed9190611a0e565b60405180910390f35b348015610201575f80fd5b5061020a610427565b6040516102179190611a82565b60405180910390f35b34801561022b575f80fd5b5061024660048036038101906102419190611adc565b61044b565b005b348015610253575f80fd5b5061025c6105a1565b005b348015610269575f80fd5b506102726105ab565b60405161027f9190611ba6565b60405180910390f35b348015610293575f80fd5b506102ae60048036038101906102a991906119ac565b6105e4565b6040516102bb9190611be0565b60405180910390f35b6102de60048036038101906102d99190611c56565b6105f5565b005b3480156102eb575f80fd5b50610306600480360381019061030191906119ac565b61079d565b005b348015610313575f80fd5b5061031c610927565b6040516103299190611a0e565b60405180910390f35b34801561033d575f80fd5b50610358600480360381019061035391906119ac565b61094e565b005b610362610962565b8060038190555050565b6103746109e9565b61037d82610acf565b6103878282610ada565b5050565b5f610394610bf8565b7f360894a13ba1a3210667c828492db98dca3e2076cc3735a920a3ca505d382bbc5f1b905090565b6103c4610962565b6103cd81610c7f565b50565b6103d8610962565b6040517f08c379a000000000000000000000000000000000000000000000000000000000815260040161040a90611d11565b60405180910390fd5b60035481565b5f610422610d2f565b905090565b7f000000000000000000000000000000000000000000000000000000000000000081565b610453610962565b5f61046461045f610927565b610d64565b90508073ffffffffffffffffffffffffffffffffffffffff1663976b0a77858585306040518563ffffffff1660e01b81526004016104a59493929190611d3e565b5f604051808303815f87803b1580156104bc575f80fd5b505af11580156104ce573d5f803e3d5ffd5b505050508073ffffffffffffffffffffffffffffffffffffffff1663f2fde38b6104f6610419565b6040518263ffffffff1660e01b81526004016105129190611a0e565b5f604051808303815f87803b158015610529575f80fd5b505af115801561053b573d5f803e3d5ffd5b50505050610553816001610d7690919063ffffffff16565b5061055e6001610da3565b7f9e3c9c2af127dbceab3a8ba63b0e9df1d1170515308547c5967e63177bfb0b68828686866040516105939493929190611d81565b60405180910390a250505050565b6105a9610962565b565b6040518060400160405280600581526020017f352e302e3000000000000000000000000000000000000000000000000000000081525081565b5f6105ee82610db6565b9050919050565b818190506801bc16d674ec80000061060d9190611df1565b341461064e576040517f08c379a000000000000000000000000000000000000000000000000000000000815260040161064590611ea2565b60405180910390fd5b5f5b82829050811015610798573683838381811061066f5761066e611ec0565b5b90506020028101906106819190611ef9565b905061069b8180602001906106969190611f20565b610dd2565b6106c281805f01906106ad9190611f20565b8380602001906106bd9190611f20565b610eb8565b7f000000000000000000000000000000000000000000000000000000000000000073ffffffffffffffffffffffffffffffffffffffff1663228951186801bc16d674ec80000083805f01906107179190611f20565b8580602001906107279190611f20565b8780604001906107379190611f20565b89606001356040518963ffffffff1660e01b815260040161075e9796959493929190611fbe565b5f604051808303818588803b158015610775575f80fd5b505af1158015610787573d5f803e3d5ffd5b505050505050806001019050610650565b505050565b5f6107a6610f8c565b90505f815f0160089054906101000a900460ff161590505f825f015f9054906101000a900467ffffffffffffffff1690505f808267ffffffffffffffff161480156107ee5750825b90505f60018367ffffffffffffffff1614801561082157505f3073ffffffffffffffffffffffffffffffffffffffff163b145b90508115801561082f575080155b15610866576040517ff92ee8a900000000000000000000000000000000000000000000000000000000815260040160405180910390fd5b6001855f015f6101000a81548167ffffffffffffffff021916908367ffffffffffffffff16021790555083156108b3576001855f0160086101000a81548160ff0219169083151502179055505b6108bc86610c7f565b6108c533610f9f565b831561091f575f855f0160086101000a81548160ff0219169083151502179055507fc7f505b2f371ae2175ee4913f4499e1f2633a7b5936321eed1cdaeb6115181d260016040516109169190612068565b60405180910390a15b505050505050565b5f805f9054906101000a900473ffffffffffffffffffffffffffffffffffffffff16905090565b610956610962565b61095f81610fb3565b50565b61096a611037565b73ffffffffffffffffffffffffffffffffffffffff16610988610419565b73ffffffffffffffffffffffffffffffffffffffff16146109e7576109ab611037565b6040517f118cdaa70000000000000000000000000000000000000000000000000000000081526004016109de9190611a0e565b60405180910390fd5b565b7f000000000000000000000000000000000000000000000000000000000000000073ffffffffffffffffffffffffffffffffffffffff163073ffffffffffffffffffffffffffffffffffffffff161480610a9657507f000000000000000000000000000000000000000000000000000000000000000073ffffffffffffffffffffffffffffffffffffffff16610a7d61103e565b73ffffffffffffffffffffffffffffffffffffffff1614155b15610acd576040517fe07c8dba00000000000000000000000000000000000000000000000000000000815260040160405180910390fd5b565b610ad7610962565b50565b8173ffffffffffffffffffffffffffffffffffffffff166352d1902d6040518163ffffffff1660e01b8152600401602060405180830381865afa925050508015610b4257506040513d601f19601f82011682018060405250810190610b3f91906120ab565b60015b610b8357816040517f4c9c8ce3000000000000000000000000000000000000000000000000000000008152600401610b7a9190611a0e565b60405180910390fd5b7f360894a13ba1a3210667c828492db98dca3e2076cc3735a920a3ca505d382bbc5f1b8114610be957806040517faa1d49a4000000000000000000000000000000000000000000000000000000008152600401610be09190611993565b60405180910390fd5b610bf38383611091565b505050565b7f000000000000000000000000000000000000000000000000000000000000000073ffffffffffffffffffffffffffffffffffffffff163073ffffffffffffffffffffffffffffffffffffffff1614610c7d576040517fe07c8dba00000000000000000000000000000000000000000000000000000000815260040160405180910390fd5b565b5f73ffffffffffffffffffffffffffffffffffffffff168173ffffffffffffffffffffffffffffffffffffffff1603610ced576040517f08c379a0000000000000000000000000000000000000000000000000000000008152600401610ce490612146565b60405180910390fd5b805f806101000a81548173ffffffffffffffffffffffffffffffffffffffff021916908373ffffffffffffffffffffffffffffffffffffffff16021790555050565b5f80610d39611103565b9050805f015f9054906101000a900473ffffffffffffffffffffffffffffffffffffffff1691505090565b5f610d6f825f61112a565b9050919050565b5f610d9b835f018373ffffffffffffffffffffffffffffffffffffffff165f1b61121f565b905092915050565b5f610daf825f01611286565b9050919050565b5f610dcb82600161129590919063ffffffff16565b9050919050565b60208282905014610e18576040517f08c379a0000000000000000000000000000000000000000000000000000000008152600401610e0f906121d4565b60405180910390fd5b5f8282600c908092610e2c939291906121fa565b90610e379190612275565b60601c9050610e4581610db6565b8015610e745750600183835f90600192610e61939291906121fa565b90610e6c91906122fe565b60f81c60ff16145b610eb3576040517f08c379a0000000000000000000000000000000000000000000000000000000008152600401610eaa906123cc565b60405180910390fd5b505050565b60308484905014610efe576040517f08c379a0000000000000000000000000000000000000000000000000000000008152600401610ef59061245a565b60405180910390fd5b8181600c908092610f11939291906121fa565b90610f1c9190612275565b60601c73ffffffffffffffffffffffffffffffffffffffff1663a6d1ec5d85856040518363ffffffff1660e01b8152600401610f59929190612478565b5f604051808303815f87803b158015610f70575f80fd5b505af1158015610f82573d5f803e3d5ffd5b5050505050505050565b5f80610f966112c2565b90508091505090565b610fa76112eb565b610fb08161132b565b50565b610fbb610962565b5f73ffffffffffffffffffffffffffffffffffffffff168173ffffffffffffffffffffffffffffffffffffffff160361102b575f6040517f1e4fbdf70000000000000000000000000000000000000000000000000000000081526004016110229190611a0e565b60405180910390fd5b611034816113af565b50565b5f33905090565b5f61106a7f360894a13ba1a3210667c828492db98dca3e2076cc3735a920a3ca505d382bbc5f1b611480565b5f015f9054906101000a900473ffffffffffffffffffffffffffffffffffffffff16905090565b61109a82611489565b8173ffffffffffffffffffffffffffffffffffffffff167fbc7cd75a20ee27fd9adebab32041f755214dbc6bffa90cc0225b39da2e5c2d3b60405160405180910390a25f815111156110f6576110f08282611552565b506110ff565b6110fe6115d2565b5b5050565b5f7f9016d09d72d40fdae2fd8ceac6b6234c7706214fd39c1cd1e609a0528c199300905090565b5f814710156111725747826040517fcf47918100000000000000000000000000000000000000000000000000000000815260040161116992919061249a565b60405180910390fd5b763d602d80600a3d3981f3363d3d373d3d3d363d730000008360601b60e81c175f526e5af43d82803e903d91602b57fd5bf38360781b176020526037600983f090505f73ffffffffffffffffffffffffffffffffffffffff168173ffffffffffffffffffffffffffffffffffffffff1603611219576040517fb06ebf3d00000000000000000000000000000000000000000000000000000000815260040160405180910390fd5b92915050565b5f61122a838361160e565b61127c57825f0182908060018154018082558091505060019003905f5260205f20015f9091909190915055825f0180549050836001015f8481526020019081526020015f208190555060019050611280565b5f90505b92915050565b5f815f01805490509050919050565b5f6112ba835f018373ffffffffffffffffffffffffffffffffffffffff165f1b61160e565b905092915050565b5f7ff0c57e16840df040f15088dc2f81fe391c3923bec73e23a9662efc9c229c6a005f1b905090565b6112f361162e565b611329576040517fd7e6bcf800000000000000000000000000000000000000000000000000000000815260040160405180910390fd5b565b6113336112eb565b5f73ffffffffffffffffffffffffffffffffffffffff168173ffffffffffffffffffffffffffffffffffffffff16036113a3575f6040517f1e4fbdf700000000000000000000000000000000000000000000000000000000815260040161139a9190611a0e565b60405180910390fd5b6113ac816113af565b50565b5f6113b8611103565b90505f815f015f9054906101000a900473ffffffffffffffffffffffffffffffffffffffff16905082825f015f6101000a81548173ffffffffffffffffffffffffffffffffffffffff021916908373ffffffffffffffffffffffffffffffffffffffff1602179055508273ffffffffffffffffffffffffffffffffffffffff168173ffffffffffffffffffffffffffffffffffffffff167f8be0079c531659141344cd1fd0a4f28419497f9722a3daafe3b4186f6b6457e060405160405180910390a3505050565b5f819050919050565b5f8173ffffffffffffffffffffffffffffffffffffffff163b036114e457806040517f4c9c8ce30000000000000000000000000000000000000000000000000000000081526004016114db9190611a0e565b60405180910390fd5b806115107f360894a13ba1a3210667c828492db98dca3e2076cc3735a920a3ca505d382bbc5f1b611480565b5f015f6101000a81548173ffffffffffffffffffffffffffffffffffffffff021916908373ffffffffffffffffffffffffffffffffffffffff16021790555050565b60605f808473ffffffffffffffffffffffffffffffffffffffff168460405161157b9190612505565b5f60405180830381855af49150503d805f81146115b3576040519150601f19603f3d011682016040523d82523d5f602084013e6115b8565b606091505b50915091506115c885838361164c565b9250505092915050565b5f34111561160c576040517fb398979f00000000000000000000000000000000000000000000000000000000815260040160405180910390fd5b565b5f80836001015f8481526020019081526020015f20541415905092915050565b5f611637610f8c565b5f0160089054906101000a900460ff16905090565b6060826116615761165c826116d9565b6116d1565b5f825114801561168757505f8473ffffffffffffffffffffffffffffffffffffffff163b145b156116c957836040517f9996b3150000000000000000000000000000000000000000000000000000000081526004016116c09190611a0e565b60405180910390fd5b8190506116d2565b5b9392505050565b5f815111156116ea57805160208201fd5b6040517fd6bda27500000000000000000000000000000000000000000000000000000000815260040160405180910390fd5b5f604051905090565b5f80fd5b5f80fd5b5f819050919050565b61173f8161172d565b8114611749575f80fd5b50565b5f8135905061175a81611736565b92915050565b5f6020828403121561177557611774611725565b5b5f6117828482850161174c565b91505092915050565b5f73ffffffffffffffffffffffffffffffffffffffff82169050919050565b5f6117b48261178b565b9050919050565b6117c4816117aa565b81146117ce575f80fd5b50565b5f813590506117df816117bb565b92915050565b5f80fd5b5f80fd5b5f601f19601f8301169050919050565b7f4e487b71000000000000000000000000000000000000000000000000000000005f52604160045260245ffd5b611833826117ed565b810181811067ffffffffffffffff82111715611852576118516117fd565b5b80604052505050565b5f61186461171c565b9050611870828261182a565b919050565b5f67ffffffffffffffff82111561188f5761188e6117fd565b5b611898826117ed565b9050602081019050919050565b828183375f83830152505050565b5f6118c56118c084611875565b61185b565b9050828152602081018484840111156118e1576118e06117e9565b5b6118ec8482856118a5565b509392505050565b5f82601f830112611908576119076117e5565b5b81356119188482602086016118b3565b91505092915050565b5f806040838503121561193757611936611725565b5b5f611944858286016117d1565b925050602083013567ffffffffffffffff81111561196557611964611729565b5b611971858286016118f4565b9150509250929050565b5f819050919050565b61198d8161197b565b82525050565b5f6020820190506119a65f830184611984565b92915050565b5f602082840312156119c1576119c0611725565b5b5f6119ce848285016117d1565b91505092915050565b6119e08161172d565b82525050565b5f6020820190506119f95f8301846119d7565b92915050565b611a08816117aa565b82525050565b5f602082019050611a215f8301846119ff565b92915050565b5f819050919050565b5f611a4a611a45611a408461178b565b611a27565b61178b565b9050919050565b5f611a5b82611a30565b9050919050565b5f611a6c82611a51565b9050919050565b611a7c81611a62565b82525050565b5f602082019050611a955f830184611a73565b92915050565b5f6bffffffffffffffffffffffff82169050919050565b611abb81611a9b565b8114611ac5575f80fd5b50565b5f81359050611ad681611ab2565b92915050565b5f805f60608486031215611af357611af2611725565b5b5f611b00868287016117d1565b9350506020611b11868287016117d1565b9250506040611b2286828701611ac8565b9150509250925092565b5f81519050919050565b5f82825260208201905092915050565b5f5b83811015611b63578082015181840152602081019050611b48565b5f8484015250505050565b5f611b7882611b2c565b611b828185611b36565b9350611b92818560208601611b46565b611b9b816117ed565b840191505092915050565b5f6020820190508181035f830152611bbe8184611b6e565b905092915050565b5f8115159050919050565b611bda81611bc6565b82525050565b5f602082019050611bf35f830184611bd1565b92915050565b5f80fd5b5f80fd5b5f8083601f840112611c1657611c156117e5565b5b8235905067ffffffffffffffff811115611c3357611c32611bf9565b5b602083019150836020820283011115611c4f57611c4e611bfd565b5b9250929050565b5f8060208385031215611c6c57611c6b611725565b5b5f83013567ffffffffffffffff811115611c8957611c88611729565b5b611c9585828601611c01565b92509250509250929050565b7f5374616b6550616456313a2063616e6e6f742072656e6f756e6365206f776e655f8201527f7273686970000000000000000000000000000000000000000000000000000000602082015250565b5f611cfb602583611b36565b9150611d0682611ca1565b604082019050919050565b5f6020820190508181035f830152611d2881611cef565b9050919050565b611d3881611a9b565b82525050565b5f608082019050611d515f8301876119ff565b611d5e60208301866119ff565b611d6b6040830185611d2f565b611d7860608301846119ff565b95945050505050565b5f608082019050611d945f8301876119ff565b611da160208301866119ff565b611dae60408301856119ff565b611dbb6060830184611d2f565b95945050505050565b7f4e487b71000000000000000000000000000000000000000000000000000000005f52601160045260245ffd5b5f611dfb8261172d565b9150611e068361172d565b9250828202611e148161172d565b91508282048414831517611e2b57611e2a611dc4565b5b5092915050565b7f5374616b6550616456313a20696e636f727265637420616d6f756e74206f66205f8201527f4554480000000000000000000000000000000000000000000000000000000000602082015250565b5f611e8c602383611b36565b9150611e9782611e32565b604082019050919050565b5f6020820190508181035f830152611eb981611e80565b9050919050565b7f4e487b71000000000000000000000000000000000000000000000000000000005f52603260045260245ffd5b5f80fd5b5f80fd5b5f80fd5b5f8235600160a003833603038112611f1457611f13611eed565b5b80830191505092915050565b5f8083356001602003843603038112611f3c57611f3b611eed565b5b80840192508235915067ffffffffffffffff821115611f5e57611f5d611ef1565b5b602083019250600182023603831315611f7a57611f79611ef5565b5b509250929050565b5f82825260208201905092915050565b5f611f9d8385611f82565b9350611faa8385846118a5565b611fb3836117ed565b840190509392505050565b5f6080820190508181035f830152611fd781898b611f92565b90508181036020830152611fec818789611f92565b90508181036040830152612001818587611f92565b90506120106060830184611984565b98975050505050505050565b5f819050919050565b5f67ffffffffffffffff82169050919050565b5f61205261204d6120488461201c565b611a27565b612025565b9050919050565b61206281612038565b82525050565b5f60208201905061207b5f830184612059565b92915050565b61208a8161197b565b8114612094575f80fd5b50565b5f815190506120a581612081565b92915050565b5f602082840312156120c0576120bf611725565b5b5f6120cd84828501612097565b91505092915050565b7f5374616b6550616456313a206e657720696d706c656d656e746174696f6e20695f8201527f7320746865207a65726f20616464726573730000000000000000000000000000602082015250565b5f612130603283611b36565b915061213b826120d6565b604082019050919050565b5f6020820190508181035f83015261215d81612124565b9050919050565b7f5374616b6550616456313a20696e76616c6964207769746864726177616c5f635f8201527f726564656e7469616c73206c656e677468000000000000000000000000000000602082015250565b5f6121be603183611b36565b91506121c982612164565b604082019050919050565b5f6020820190508181035f8301526121eb816121b2565b9050919050565b5f80fd5b5f80fd5b5f808585111561220d5761220c6121f2565b5b8386111561221e5761221d6121f6565b5b6001850283019150848603905094509492505050565b5f82905092915050565b5f7fffffffffffffffffffffffffffffffffffffffff00000000000000000000000082169050919050565b5f82821b905092915050565b5f6122808383612234565b8261228b813561223e565b925060148210156122cb576122c67fffffffffffffffffffffffffffffffffffffffff00000000000000000000000083601403600802612269565b831692505b505092915050565b5f7fff0000000000000000000000000000000000000000000000000000000000000082169050919050565b5f6123098383612234565b8261231481356122d3565b925060018210156123545761234f7fff0000000000000000000000000000000000000000000000000000000000000083600103600802612269565b831692505b505092915050565b7f5374616b6550616456313a20696e76616c6964207769746864726177616c5f635f8201527f726564656e7469616c7300000000000000000000000000000000000000000000602082015250565b5f6123b6602a83611b36565b91506123c18261235c565b604082019050919050565b5f6020820190508181035f8301526123e3816123aa565b9050919050565b7f5374616b6550616456313a20696e76616c6964207075626b6579206c656e67745f8201527f6800000000000000000000000000000000000000000000000000000000000000602082015250565b5f612444602183611b36565b915061244f826123ea565b604082019050919050565b5f6020820190508181035f83015261247181612438565b9050919050565b5f6020820190508181035f830152612491818486611f92565b90509392505050565b5f6040820190506124ad5f8301856119d7565b6124ba60208301846119d7565b9392505050565b5f81519050919050565b5f81905092915050565b5f6124df826124c1565b6124e981856124cb565b93506124f9818560208601611b46565b80840191505092915050565b5f61251082846124d5565b91508190509291505056fea2646970667358221220df26a2c6ed3ec2c933a8b8ccf008495c665c4d799ef98bcb218e08131bfa061664736f6c63430008160033","linkReferences":{}},"methodIdentifiers":{"UPGRADE_INTERFACE_VERSION()":"ad3cb1cc","beaconDeposit()":"918da8a5","deployNewRewardReceiver(address,address,uint96)":"98796d48","fundValidators((bytes,bytes,bytes,bytes32,uint256)[])":"b860d670","initialize(address)":"c4d66de8","isRegisteredRewardReceiver(address)":"b114ba83","newVariable()":"8d7a72f3","owner()":"8da5cb5b","proxiableUUID()":"52d1902d","renounceOwnership()":"715018a6","rewardReceiverImpl()":"cfc28a67","setNewVariable(uint256)":"1c02ea0e","transferOwnership(address)":"f2fde38b","updateDepositContract()":"a6abc326","updateRewardReceiverImpl(address)":"5c96539d","upgradeToAndCall(address,bytes)":"4f1ef286"},"id":57}