{"abi":[{"type":"constructor","inputs":[{"name":"_beaconDeposit","type":"address","internalType":"address"}],"stateMutability":"nonpayable"},{"type":"function","name":"UPGRADE_INTERFACE_VERSION","inputs":[],"outputs":[{"name":"","type":"string","internalType":"string"}],"stateMutability":"view"},{"type":"function","name":"beaconDeposit","inputs":[],"outputs":[{"name":"","type":"address","internalType":"contract IDepositContract"}],"stateMutability":"view"},{"type":"function","name":"deployNewRewardReceiver","inputs":[{"name":"client","type":"address","internalType":"address"},{"name":"provider","type":"address","internalType":"address"},{"name":"commission","type":"uint96","internalType":"uint96"}],"outputs":[],"stateMutability":"nonpayable"},{"type":"function","name":"fundValidators","inputs":[{"name":"DepositDataArray","type":"tuple[]","internalType":"struct StakePadUtils.BeaconDepositParams[]","components":[{"name":"pubkey","type":"bytes","internalType":"bytes"},{"name":"withdrawal_credentials","type":"bytes","internalType":"bytes"},{"name":"signature","type":"bytes","internalType":"bytes"},{"name":"deposit_data_root","type":"bytes32","internalType":"bytes32"},{"name":"amount","type":"uint256","internalType":"uint256"}]}],"outputs":[],"stateMutability":"payable"},{"type":"function","name":"initialize","inputs":[{"name":"newRewardReceiverImpl","type":"address","internalType":"address"}],"outputs":[],"stateMutability":"nonpayable"},{"type":"function","name":"isRegisteredRewardReceiver","inputs":[{"name":"rewardReceiver","type":"address","internalType":"address"}],"outputs":[{"name":"","type":"bool","internalType":"bool"}],"stateMutability":"view"},{"type":"function","name":"owner","inputs":[],"outputs":[{"name":"","type":"address","internalType":"address"}],"stateMutability":"view"},{"type":"function","name":"proxiableUUID","inputs":[],"outputs":[{"name":"","type":"bytes32","internalType":"bytes32"}],"stateMutability":"view"},{"type":"function","name":"renounceOwnership","inputs":[],"outputs":[],"stateMutability":"view"},{"type":"function","name":"retrieveETH","inputs":[],"outputs":[],"stateMutability":"nonpayable"},{"type":"function","name":"rewardReceiverImpl","inputs":[],"outputs":[{"name":"","type":"address","internalType":"address"}],"stateMutability":"view"},{"type":"function","name":"transferOwnership","inputs":[{"name":"newOwner","type":"address","internalType":"address"}],"outputs":[],"stateMutability":"nonpayable"},{"type":"function","name":"updateRewardReceiverImpl","inputs":[{"name":"newRewardReceiverImpl","type":"address","internalType":"address"}],"outputs":[],"stateMutability":"nonpayable"},{"type":"function","name":"upgradeToAndCall","inputs":[{"name":"newImplementation","type":"address","internalType":"address"},{"name":"data","type":"bytes","internalType":"bytes"}],"outputs":[],"stateMutability":"payable"},{"type":"event","name":"Initialized","inputs":[{"name":"version","type":"uint64","indexed":false,"internalType":"uint64"}],"anonymous":false},{"type":"event","name":"NewRewardReceiver","inputs":[{"name":"index","type":"uint256","indexed":true,"internalType":"uint256"},{"name":"rewardReceiver","type":"address","indexed":false,"internalType":"address"},{"name":"client","type":"address","indexed":false,"internalType":"address"},{"name":"provider","type":"address","indexed":false,"internalType":"address"},{"name":"commission","type":"uint96","indexed":false,"internalType":"uint96"}],"anonymous":false},{"type":"event","name":"OwnershipTransferred","inputs":[{"name":"previousOwner","type":"address","indexed":true,"internalType":"address"},{"name":"newOwner","type":"address","indexed":true,"internalType":"address"}],"anonymous":false},{"type":"event","name":"Upgraded","inputs":[{"name":"implementation","type":"address","indexed":true,"internalType":"address"}],"anonymous":false},{"type":"error","name":"AddressEmptyCode","inputs":[{"name":"target","type":"address","internalType":"address"}]},{"type":"error","name":"ERC1967InvalidImplementation","inputs":[{"name":"implementation","type":"address","internalType":"address"}]},{"type":"error","name":"ERC1967NonPayable","inputs":[]},{"type":"error","name":"FailedCall","inputs":[]},{"type":"error","name":"FailedDeployment","inputs":[]},{"type":"error","name":"InsufficientBalance","inputs":[{"name":"balance","type":"uint256","internalType":"uint256"},{"name":"needed","type":"uint256","internalType":"uint256"}]},{"type":"error","name":"InvalidInitialization","inputs":[]},{"type":"error","name":"NotInitializing","inputs":[]},{"type":"error","name":"OwnableInvalidOwner","inputs":[{"name":"owner","type":"address","internalType":"address"}]},{"type":"error","name":"OwnableUnauthorizedAccount","inputs":[{"name":"account","type":"address","internalType":"address"}]},{"type":"error","name":"UUPSUnauthorizedCallContext","inputs":[]},{"type":"error","name":"UUPSUnsupportedProxiableUUID","inputs":[{"name":"slot","type":"bytes32","internalType":"bytes32"}]}],"bytecode":{"object":"0x60c06040523073ffffffffffffffffffffffffffffffffffffffff1660809073ffffffffffffffffffffffffffffffffffffffff1681525034801562000043575f80fd5b506040516200270c3803806200270c833981810160405281019062000069919062000109565b8073ffffffffffffffffffffffffffffffffffffffff1660a08173ffffffffffffffffffffffffffffffffffffffff16815250505062000139565b5f80fd5b5f73ffffffffffffffffffffffffffffffffffffffff82169050919050565b5f620000d382620000a8565b9050919050565b620000e581620000c7565b8114620000f0575f80fd5b50565b5f815190506200010381620000da565b92915050565b5f60208284031215620001215762000120620000a4565b5b5f6200013084828501620000f3565b91505092915050565b60805160a05161259c620001705f395f81816103a9015261061b01525f818161098e015281816109e30152610b9d015261259c5ff3fe6080604052600436106100dc575f3560e01c8063ad3cb1cc1161007e578063c4d66de811610058578063c4d66de814610262578063cfc28a671461028a578063d5b014c3146102b4578063f2fde38b146102ca576100dc565b8063ad3cb1cc146101e0578063b114ba831461020a578063b860d67014610246576100dc565b8063715018a6116100ba578063715018a61461014e5780638da5cb5b14610164578063918da8a51461018e57806398796d48146101b8576100dc565b80634f1ef286146100e057806352d1902d146100fc5780635c96539d14610126575b5f80fd5b6100fa60048036038101906100f591906118ee565b6102f2565b005b348015610107575f80fd5b50610110610311565b60405161011d9190611960565b60405180910390f35b348015610131575f80fd5b5061014c60048036038101906101479190611979565b610342565b005b348015610159575f80fd5b50610162610356565b005b34801561016f575f80fd5b50610178610399565b60405161018591906119b3565b60405180910390f35b348015610199575f80fd5b506101a26103a7565b6040516101af9190611a27565b60405180910390f35b3480156101c3575f80fd5b506101de60048036038101906101d99190611a81565b6103cb565b005b3480156101eb575f80fd5b506101f4610519565b6040516102019190611b4b565b60405180910390f35b348015610215575f80fd5b50610230600480360381019061022b9190611979565b610552565b60405161023d9190611b85565b60405180910390f35b610260600480360381019061025b9190611bfb565b610563565b005b34801561026d575f80fd5b5061028860048036038101906102839190611979565b6106f9565b005b348015610295575f80fd5b5061029e610897565b6040516102ab91906119b3565b60405180910390f35b3480156102bf575f80fd5b506102c86108be565b005b3480156102d5575f80fd5b506102f060048036038101906102eb9190611979565b610978565b005b6102fa61098c565b61030382610a72565b61030d8282610a7d565b5050565b5f61031a610b9b565b7f360894a13ba1a3210667c828492db98dca3e2076cc3735a920a3ca505d382bbc5f1b905090565b61034a610c22565b61035381610ca9565b50565b61035e610c22565b6040517f08c379a000000000000000000000000000000000000000000000000000000000815260040161039090611cb6565b60405180910390fd5b5f6103a2610d59565b905090565b7f000000000000000000000000000000000000000000000000000000000000000081565b5f6103dc6103d7610897565b610d8e565b90508073ffffffffffffffffffffffffffffffffffffffff1663976b0a77858585306040518563ffffffff1660e01b815260040161041d9493929190611ce3565b5f604051808303815f87803b158015610434575f80fd5b505af1158015610446573d5f803e3d5ffd5b505050508073ffffffffffffffffffffffffffffffffffffffff1663f2fde38b61046e610399565b6040518263ffffffff1660e01b815260040161048a91906119b3565b5f604051808303815f87803b1580156104a1575f80fd5b505af11580156104b3573d5f803e3d5ffd5b505050506104cb816001610da090919063ffffffff16565b506104d66001610dcd565b7f9e3c9c2af127dbceab3a8ba63b0e9df1d1170515308547c5967e63177bfb0b688286868660405161050b9493929190611d26565b60405180910390a250505050565b6040518060400160405280600581526020017f352e302e3000000000000000000000000000000000000000000000000000000081525081565b5f61055c82610de0565b9050919050565b5f34116105a5576040517f08c379a000000000000000000000000000000000000000000000000000000000815260040161059c90611dd9565b60405180910390fd5b5f5b828290508110156106f457368383838181106105c6576105c5611df7565b5b90506020028101906105d89190611e30565b90506105f28180602001906105ed9190611e57565b610dfc565b61061981805f01906106049190611e57565b8380602001906106149190611e57565b610ee2565b7f000000000000000000000000000000000000000000000000000000000000000073ffffffffffffffffffffffffffffffffffffffff16632289511885859050346106649190611eef565b83805f01906106739190611e57565b8580602001906106839190611e57565b8780604001906106939190611e57565b89606001356040518963ffffffff1660e01b81526004016106ba9796959493929190611f5b565b5f604051808303818588803b1580156106d1575f80fd5b505af11580156106e3573d5f803e3d5ffd5b5050505050508060010190506105a7565b505050565b5f610702610fb6565b90505f815f0160089054906101000a900460ff161590505f825f015f9054906101000a900467ffffffffffffffff1690505f808267ffffffffffffffff1614801561074a5750825b90505f60018367ffffffffffffffff1614801561077d57505f3073ffffffffffffffffffffffffffffffffffffffff163b145b90508115801561078b575080155b156107c2576040517ff92ee8a900000000000000000000000000000000000000000000000000000000815260040160405180910390fd5b6001855f015f6101000a81548167ffffffffffffffff021916908367ffffffffffffffff160217905550831561080f576001855f0160086101000a81548160ff0219169083151502179055505b61081886610ca9565b61083573d60ca38884509c7b296da19a44c71c61d9e78eff610fc9565b831561088f575f855f0160086101000a81548160ff0219169083151502179055507fc7f505b2f371ae2175ee4913f4499e1f2633a7b5936321eed1cdaeb6115181d260016040516108869190612005565b60405180910390a15b505050505050565b5f805f9054906101000a900473ffffffffffffffffffffffffffffffffffffffff16905090565b6108c6610c22565b5f6108cf610399565b73ffffffffffffffffffffffffffffffffffffffff16476040516108f29061204b565b5f6040518083038185875af1925050503d805f811461092c576040519150601f19603f3d011682016040523d82523d5f602084013e610931565b606091505b5050905080610975576040517f08c379a000000000000000000000000000000000000000000000000000000000815260040161096c906120a9565b60405180910390fd5b50565b610980610c22565b61098981610fdd565b50565b7f000000000000000000000000000000000000000000000000000000000000000073ffffffffffffffffffffffffffffffffffffffff163073ffffffffffffffffffffffffffffffffffffffff161480610a3957507f000000000000000000000000000000000000000000000000000000000000000073ffffffffffffffffffffffffffffffffffffffff16610a20611061565b73ffffffffffffffffffffffffffffffffffffffff1614155b15610a70576040517fe07c8dba00000000000000000000000000000000000000000000000000000000815260040160405180910390fd5b565b610a7a610c22565b50565b8173ffffffffffffffffffffffffffffffffffffffff166352d1902d6040518163ffffffff1660e01b8152600401602060405180830381865afa925050508015610ae557506040513d601f19601f82011682018060405250810190610ae291906120f1565b60015b610b2657816040517f4c9c8ce3000000000000000000000000000000000000000000000000000000008152600401610b1d91906119b3565b60405180910390fd5b7f360894a13ba1a3210667c828492db98dca3e2076cc3735a920a3ca505d382bbc5f1b8114610b8c57806040517faa1d49a4000000000000000000000000000000000000000000000000000000008152600401610b839190611960565b60405180910390fd5b610b9683836110b4565b505050565b7f000000000000000000000000000000000000000000000000000000000000000073ffffffffffffffffffffffffffffffffffffffff163073ffffffffffffffffffffffffffffffffffffffff1614610c20576040517fe07c8dba00000000000000000000000000000000000000000000000000000000815260040160405180910390fd5b565b610c2a611126565b73ffffffffffffffffffffffffffffffffffffffff16610c48610399565b73ffffffffffffffffffffffffffffffffffffffff1614610ca757610c6b611126565b6040517f118cdaa7000000000000000000000000000000000000000000000000000000008152600401610c9e91906119b3565b60405180910390fd5b565b5f73ffffffffffffffffffffffffffffffffffffffff168173ffffffffffffffffffffffffffffffffffffffff1603610d17576040517f08c379a0000000000000000000000000000000000000000000000000000000008152600401610d0e9061218c565b60405180910390fd5b805f806101000a81548173ffffffffffffffffffffffffffffffffffffffff021916908373ffffffffffffffffffffffffffffffffffffffff16021790555050565b5f80610d6361112d565b9050805f015f9054906101000a900473ffffffffffffffffffffffffffffffffffffffff1691505090565b5f610d99825f611154565b9050919050565b5f610dc5835f018373ffffffffffffffffffffffffffffffffffffffff165f1b611249565b905092915050565b5f610dd9825f016112b0565b9050919050565b5f610df58260016112bf90919063ffffffff16565b9050919050565b60208282905014610e42576040517f08c379a0000000000000000000000000000000000000000000000000000000008152600401610e399061221a565b60405180910390fd5b5f8282600c908092610e5693929190612240565b90610e6191906122bb565b60601c9050610e6f81610de0565b8015610e9e5750600183835f90600192610e8b93929190612240565b90610e969190612344565b60f81c60ff16145b610edd576040517f08c379a0000000000000000000000000000000000000000000000000000000008152600401610ed490612412565b60405180910390fd5b505050565b60308484905014610f28576040517f08c379a0000000000000000000000000000000000000000000000000000000008152600401610f1f906124a0565b60405180910390fd5b8181600c908092610f3b93929190612240565b90610f4691906122bb565b60601c73ffffffffffffffffffffffffffffffffffffffff1663a6d1ec5d85856040518363ffffffff1660e01b8152600401610f839291906124be565b5f604051808303815f87803b158015610f9a575f80fd5b505af1158015610fac573d5f803e3d5ffd5b5050505050505050565b5f80610fc06112ec565b90508091505090565b610fd1611315565b610fda81611355565b50565b610fe5610c22565b5f73ffffffffffffffffffffffffffffffffffffffff168173ffffffffffffffffffffffffffffffffffffffff1603611055575f6040517f1e4fbdf700000000000000000000000000000000000000000000000000000000815260040161104c91906119b3565b60405180910390fd5b61105e816113d9565b50565b5f61108d7f360894a13ba1a3210667c828492db98dca3e2076cc3735a920a3ca505d382bbc5f1b6114aa565b5f015f9054906101000a900473ffffffffffffffffffffffffffffffffffffffff16905090565b6110bd826114b3565b8173ffffffffffffffffffffffffffffffffffffffff167fbc7cd75a20ee27fd9adebab32041f755214dbc6bffa90cc0225b39da2e5c2d3b60405160405180910390a25f8151111561111957611113828261157c565b50611122565b6111216115fc565b5b5050565b5f33905090565b5f7f9016d09d72d40fdae2fd8ceac6b6234c7706214fd39c1cd1e609a0528c199300905090565b5f8147101561119c5747826040517fcf4791810000000000000000000000000000000000000000000000000000000081526004016111939291906124ef565b60405180910390fd5b763d602d80600a3d3981f3363d3d373d3d3d363d730000008360601b60e81c175f526e5af43d82803e903d91602b57fd5bf38360781b176020526037600983f090505f73ffffffffffffffffffffffffffffffffffffffff168173ffffffffffffffffffffffffffffffffffffffff1603611243576040517fb06ebf3d00000000000000000000000000000000000000000000000000000000815260040160405180910390fd5b92915050565b5f6112548383611638565b6112a657825f0182908060018154018082558091505060019003905f5260205f20015f9091909190915055825f0180549050836001015f8481526020019081526020015f2081905550600190506112aa565b5f90505b92915050565b5f815f01805490509050919050565b5f6112e4835f018373ffffffffffffffffffffffffffffffffffffffff165f1b611638565b905092915050565b5f7ff0c57e16840df040f15088dc2f81fe391c3923bec73e23a9662efc9c229c6a005f1b905090565b61131d611658565b611353576040517fd7e6bcf800000000000000000000000000000000000000000000000000000000815260040160405180910390fd5b565b61135d611315565b5f73ffffffffffffffffffffffffffffffffffffffff168173ffffffffffffffffffffffffffffffffffffffff16036113cd575f6040517f1e4fbdf70000000000000000000000000000000000000000000000000000000081526004016113c491906119b3565b60405180910390fd5b6113d6816113d9565b50565b5f6113e261112d565b90505f815f015f9054906101000a900473ffffffffffffffffffffffffffffffffffffffff16905082825f015f6101000a81548173ffffffffffffffffffffffffffffffffffffffff021916908373ffffffffffffffffffffffffffffffffffffffff1602179055508273ffffffffffffffffffffffffffffffffffffffff168173ffffffffffffffffffffffffffffffffffffffff167f8be0079c531659141344cd1fd0a4f28419497f9722a3daafe3b4186f6b6457e060405160405180910390a3505050565b5f819050919050565b5f8173ffffffffffffffffffffffffffffffffffffffff163b0361150e57806040517f4c9c8ce300000000000000000000000000000000000000000000000000000000815260040161150591906119b3565b60405180910390fd5b8061153a7f360894a13ba1a3210667c828492db98dca3e2076cc3735a920a3ca505d382bbc5f1b6114aa565b5f015f6101000a81548173ffffffffffffffffffffffffffffffffffffffff021916908373ffffffffffffffffffffffffffffffffffffffff16021790555050565b60605f808473ffffffffffffffffffffffffffffffffffffffff16846040516115a59190612550565b5f60405180830381855af49150503d805f81146115dd576040519150601f19603f3d011682016040523d82523d5f602084013e6115e2565b606091505b50915091506115f2858383611676565b9250505092915050565b5f341115611636576040517fb398979f00000000000000000000000000000000000000000000000000000000815260040160405180910390fd5b565b5f80836001015f8481526020019081526020015f20541415905092915050565b5f611661610fb6565b5f0160089054906101000a900460ff16905090565b60608261168b5761168682611703565b6116fb565b5f82511480156116b157505f8473ffffffffffffffffffffffffffffffffffffffff163b145b156116f357836040517f9996b3150000000000000000000000000000000000000000000000000000000081526004016116ea91906119b3565b60405180910390fd5b8190506116fc565b5b9392505050565b5f815111156117155780518082602001fd5b6040517fd6bda27500000000000000000000000000000000000000000000000000000000815260040160405180910390fd5b5f604051905090565b5f80fd5b5f80fd5b5f73ffffffffffffffffffffffffffffffffffffffff82169050919050565b5f61178182611758565b9050919050565b61179181611777565b811461179b575f80fd5b50565b5f813590506117ac81611788565b92915050565b5f80fd5b5f80fd5b5f601f19601f8301169050919050565b7f4e487b71000000000000000000000000000000000000000000000000000000005f52604160045260245ffd5b611800826117ba565b810181811067ffffffffffffffff8211171561181f5761181e6117ca565b5b80604052505050565b5f611831611747565b905061183d82826117f7565b919050565b5f67ffffffffffffffff82111561185c5761185b6117ca565b5b611865826117ba565b9050602081019050919050565b828183375f83830152505050565b5f61189261188d84611842565b611828565b9050828152602081018484840111156118ae576118ad6117b6565b5b6118b9848285611872565b509392505050565b5f82601f8301126118d5576118d46117b2565b5b81356118e5848260208601611880565b91505092915050565b5f806040838503121561190457611903611750565b5b5f6119118582860161179e565b925050602083013567ffffffffffffffff81111561193257611931611754565b5b61193e858286016118c1565b9150509250929050565b5f819050919050565b61195a81611948565b82525050565b5f6020820190506119735f830184611951565b92915050565b5f6020828403121561198e5761198d611750565b5b5f61199b8482850161179e565b91505092915050565b6119ad81611777565b82525050565b5f6020820190506119c65f8301846119a4565b92915050565b5f819050919050565b5f6119ef6119ea6119e584611758565b6119cc565b611758565b9050919050565b5f611a00826119d5565b9050919050565b5f611a11826119f6565b9050919050565b611a2181611a07565b82525050565b5f602082019050611a3a5f830184611a18565b92915050565b5f6bffffffffffffffffffffffff82169050919050565b611a6081611a40565b8114611a6a575f80fd5b50565b5f81359050611a7b81611a57565b92915050565b5f805f60608486031215611a9857611a97611750565b5b5f611aa58682870161179e565b9350506020611ab68682870161179e565b9250506040611ac786828701611a6d565b9150509250925092565b5f81519050919050565b5f82825260208201905092915050565b5f5b83811015611b08578082015181840152602081019050611aed565b5f8484015250505050565b5f611b1d82611ad1565b611b278185611adb565b9350611b37818560208601611aeb565b611b40816117ba565b840191505092915050565b5f6020820190508181035f830152611b638184611b13565b905092915050565b5f8115159050919050565b611b7f81611b6b565b82525050565b5f602082019050611b985f830184611b76565b92915050565b5f80fd5b5f80fd5b5f8083601f840112611bbb57611bba6117b2565b5b8235905067ffffffffffffffff811115611bd857611bd7611b9e565b5b602083019150836020820283011115611bf457611bf3611ba2565b5b9250929050565b5f8060208385031215611c1157611c10611750565b5b5f83013567ffffffffffffffff811115611c2e57611c2d611754565b5b611c3a85828601611ba6565b92509250509250929050565b7f5374616b6550616456313a2063616e6e6f742072656e6f756e6365206f776e655f8201527f7273686970000000000000000000000000000000000000000000000000000000602082015250565b5f611ca0602583611adb565b9150611cab82611c46565b604082019050919050565b5f6020820190508181035f830152611ccd81611c94565b9050919050565b611cdd81611a40565b82525050565b5f608082019050611cf65f8301876119a4565b611d0360208301866119a4565b611d106040830185611cd4565b611d1d60608301846119a4565b95945050505050565b5f608082019050611d395f8301876119a4565b611d4660208301866119a4565b611d5360408301856119a4565b611d606060830184611cd4565b95945050505050565b7f5374616b6550616456313a20696e636f727265637420616d6f756e74206f66205f8201527f4554480000000000000000000000000000000000000000000000000000000000602082015250565b5f611dc3602383611adb565b9150611dce82611d69565b604082019050919050565b5f6020820190508181035f830152611df081611db7565b9050919050565b7f4e487b71000000000000000000000000000000000000000000000000000000005f52603260045260245ffd5b5f80fd5b5f80fd5b5f80fd5b5f8235600160a003833603038112611e4b57611e4a611e24565b5b80830191505092915050565b5f8083356001602003843603038112611e7357611e72611e24565b5b80840192508235915067ffffffffffffffff821115611e9557611e94611e28565b5b602083019250600182023603831315611eb157611eb0611e2c565b5b509250929050565b5f819050919050565b7f4e487b71000000000000000000000000000000000000000000000000000000005f52601260045260245ffd5b5f611ef982611eb9565b9150611f0483611eb9565b925082611f1457611f13611ec2565b5b828204905092915050565b5f82825260208201905092915050565b5f611f3a8385611f1f565b9350611f47838584611872565b611f50836117ba565b840190509392505050565b5f6080820190508181035f830152611f7481898b611f2f565b90508181036020830152611f89818789611f2f565b90508181036040830152611f9e818587611f2f565b9050611fad6060830184611951565b98975050505050505050565b5f819050919050565b5f67ffffffffffffffff82169050919050565b5f611fef611fea611fe584611fb9565b6119cc565b611fc2565b9050919050565b611fff81611fd5565b82525050565b5f6020820190506120185f830184611ff6565b92915050565b5f81905092915050565b50565b5f6120365f8361201e565b915061204182612028565b5f82019050919050565b5f6120558261202b565b9150819050919050565b7f5374616b6550616456313a207265747269657665455448206661696c656400005f82015250565b5f612093601e83611adb565b915061209e8261205f565b602082019050919050565b5f6020820190508181035f8301526120c081612087565b9050919050565b6120d081611948565b81146120da575f80fd5b50565b5f815190506120eb816120c7565b92915050565b5f6020828403121561210657612105611750565b5b5f612113848285016120dd565b91505092915050565b7f5374616b6550616456313a206e657720696d706c656d656e746174696f6e20695f8201527f7320746865207a65726f20616464726573730000000000000000000000000000602082015250565b5f612176603283611adb565b91506121818261211c565b604082019050919050565b5f6020820190508181035f8301526121a38161216a565b9050919050565b7f5374616b6550616456313a20696e76616c6964207769746864726177616c5f635f8201527f726564656e7469616c73206c656e677468000000000000000000000000000000602082015250565b5f612204603183611adb565b915061220f826121aa565b604082019050919050565b5f6020820190508181035f830152612231816121f8565b9050919050565b5f80fd5b5f80fd5b5f808585111561225357612252612238565b5b838611156122645761226361223c565b5b6001850283019150848603905094509492505050565b5f82905092915050565b5f7fffffffffffffffffffffffffffffffffffffffff00000000000000000000000082169050919050565b5f82821b905092915050565b5f6122c6838361227a565b826122d18135612284565b925060148210156123115761230c7fffffffffffffffffffffffffffffffffffffffff000000000000000000000000836014036008026122af565b831692505b505092915050565b5f7fff0000000000000000000000000000000000000000000000000000000000000082169050919050565b5f61234f838361227a565b8261235a8135612319565b9250600182101561239a576123957fff00000000000000000000000000000000000000000000000000000000000000836001036008026122af565b831692505b505092915050565b7f5374616b6550616456313a20696e76616c6964207769746864726177616c5f635f8201527f726564656e7469616c7300000000000000000000000000000000000000000000602082015250565b5f6123fc602a83611adb565b9150612407826123a2565b604082019050919050565b5f6020820190508181035f830152612429816123f0565b9050919050565b7f5374616b6550616456313a20696e76616c6964207075626b6579206c656e67745f8201527f6800000000000000000000000000000000000000000000000000000000000000602082015250565b5f61248a602183611adb565b915061249582612430565b604082019050919050565b5f6020820190508181035f8301526124b78161247e565b9050919050565b5f6020820190508181035f8301526124d7818486611f2f565b90509392505050565b6124e981611eb9565b82525050565b5f6040820190506125025f8301856124e0565b61250f60208301846124e0565b9392505050565b5f81519050919050565b5f61252a82612516565b612534818561201e565b9350612544818560208601611aeb565b80840191505092915050565b5f61255b8284612520565b91508190509291505056fea26469706673582212202be8faa2f99f7e301b8ee7b10db102abf69d5a430355c08dc73abe063bee75da64736f6c63430008160033","linkReferences":{}},"methodIdentifiers":{"UPGRADE_INTERFACE_VERSION()":"ad3cb1cc","beaconDeposit()":"918da8a5","deployNewRewardReceiver(address,address,uint96)":"98796d48","fundValidators((bytes,bytes,bytes,bytes32,uint256)[])":"b860d670","initialize(address)":"c4d66de8","isRegisteredRewardReceiver(address)":"b114ba83","owner()":"8da5cb5b","proxiableUUID()":"52d1902d","renounceOwnership()":"715018a6","retrieveETH()":"d5b014c3","rewardReceiverImpl()":"cfc28a67","transferOwnership(address)":"f2fde38b","updateRewardReceiverImpl(address)":"5c96539d","upgradeToAndCall(address,bytes)":"4f1ef286"},"id":49}